:100000000C9490000C94EA060C94AF000C94AF0092
:100010000C94AF000C94AF000C94AF000C94AF00A4
:100020000C94AF000C941D040C94AF000C94AF0022
:100030000C94AF000C945D0C0C94AF000C94AF00CA
:100040000C94AF000C94270C0C94AF000C94AF00F0
:100050000C94AF000C94AF000C94AF000C94AF0064
:100060000C94AF000C94AF000C94AF000C94AF0054
:100070000C94AF000C94AF000C94AF000C94AF0044
:100080000C94AF000C94AF000C94AF000C94AF0034
:100090000C94AF000C94AF000C94AF000C94AF0024
:1000A0000C94AF000C94AF000C94AF000C94AF0014
:1000B0000C94AF000C94AF000C94AF000C948A0722
:1000C0000C94AF000C94AF000C94AF000C94AF00F4
:1000D0000C94AF000C94AF000C94AF000C94AF00E4
:1000E0000C94AF000C94AF000C94AF000C94AF00D4
:1000F0000C94AF000C94AF000C94AF000C94AF00C4
:100100000C94AF000C94AF000C94AF000C94AF00B3
:100110000C94AF000C94AF000C94AF000C94AF00A3
:1001200011241FBECFEFD1E4DEBFCDBF18E0A0E0A9
:10013000B2E0ECEFF2E200E00BBF02C007900D92DC
:10014000AA33B107D9F72AE0AAE3B8E001C01D92AB
:10015000A638B207E1F70E94B1000C947C110C9410
:100160000000CF93DF93CDB7DEB7A8970FB6F89412
:10017000DEBF0FBECDBF8EE191E09A83898381E01F
:100180000E94A60389819A810E947F040E947908B7
:1001900080E00E94DA080E947A0D0E946D050E949C
:1001A000B0050E9465090E9410068EE391E09C83D1
:1001B0008B8318861F8284EF91E09A8789878B85CD
:1001C0008E7F8B871D861C86CE0103960E94E009D8
:1001D00060E071EE80E090E00E94DC0DCE010E96B2
:1001E0009C0140E050E064E070E081E090E00E941B
:1001F00021028AEE91E09F8F8E8FCE010E9699A3F9
:1002000088A31BA21AA288EC90E09DA38CA38EA1C8
:100210008E7F8EA318A61FA2CE014E960E94E009E3
:1002200078940E94720980E090E0A8960FB6F89446
:10023000DEBF0FBECDBFDF91CF910895CF93DF9387
:10024000CDB7DEB780910002882F90E021E0892BA6
:1002500009F420E081E08227882F90E0817080936C
:10026000000280910002882319F010923A0803C01E
:1002700084E680933A08DF91CF910895CF93DF937E
:1002800000D000D000D0CDB7DEB70E9499069C8385
:100290008B831A8219822B813C8180913A08882FA6
:1002A00090E0A901481B590BCA012AE030E0B901CE
:1002B0000E94560ECB019A83898389819A81049783
:1002C00024F083E090E09A83898389819A818C3F2E
:1002D0009F4F24F48CEF9FEF9A83898362E080E044
:1002E0000E94C60C80913A08282F30E080910102CC
:1002F000909102024C814F934B814F93432F4F9328
:100300002F9325E032E0232F2F9325E032E02F9327
:10031000292F2F938F930E94C50E8DB79EB70896F5
:100320000FB6F894DEBF0FBECDBF80913A08882388
:1003300041F480913B0841E0682F80E00E94100D5D
:100340000BC020913B08898193E0392F381B832F04
:1003500041E0622F0E94100D80913B088F5F8093D7
:100360003B0880913B088A3761F50E94570D62E097
:1003700080E00E94C60C80913A08282F30E08091DE
:100380000102909102024C814F934B814F93432F76
:100390004F932F9323E132E0232F2F9323E132E079
:1003A0002F93292F2F938F930E94C50E4DB75EB7C1
:1003B000485F5F4F0FB6F894DEBF0FBECDBF1092FF
:1003C0003B0826960FB6F894DEBF0FBECDBFDF9177
:1003D000CF910895CF93DF9300D01F92CDB7DEB7B2
:1003E0009B838A8380913A08882F90E02A813B8101
:1003F000B9010E946802898389810E94DA08898193
:10040000282F30E08091030290910402432F4F93F4
:100410002F932BE132E0232F2F932BE132E02F9308
:10042000292F2F938F930E94C50E0F900F900F903E
:100430000F900F900F900F900F900F90DF91CF9132
:100440000895CF93DF93CDB7DEB728970FB6F89412
:10045000DEBF0FBECDBF9A8389837C836B835E83AF
:100460004D8338872F838F819885FC0112821382F8
:10047000148215828F819885FC01118210828F81F0
:10048000988529813A81FC01378326838F8198855D
:100490002B813C81FC01318720878F8198852D81BC
:1004A0003E81FC01338722872F8138858FEF9FE7BC
:1004B000A0E0B0E0F90184879587A687B7872896E2
:1004C0000FB6F894DEBF0FBECDBFDF91CF91089578
:1004D000CF93DF93CDB7DEB76C970FB6F894DEBF3E
:1004E0000FBECDBF9E8B8D8B788F6F8B0E94990630
:1004F0009E838D832D893E898D819E81A901481B14
:10050000590BCA0198878F8380910302909104024E
:1005100028852F932F812F932FE232E0232F2F93C3
:100520002FE232E02F93292F2F938F930E94C50E35
:100530000F900F900F900F900F900F908F89988DC4
:10054000FC01468157812F813885429FC001439F1E
:10055000900D529F900D11249A8789878F89988DCD
:10056000FC0122813381448155818F819885092E38
:10057000000CAA0BBB0B820F931FA41FB51F8B8708
:100580009C87AD87BE878F89988DFC012485358532
:10059000468557858B859C85AD85BE85281739078F
:1005A0004A075B07BCF48FEF9FE7A0E0B0E08983C8
:1005B0009A83AB83BC838F89988DFC018485958554
:1005C000A685B7852F89388DF90182839383A4830B
:1005D000B5835AC08F89988DFC0184859585A68541
:1005E000B78522273327A901281B390B4A0B5B0B40
:1005F0008B859C85AD85BE8582179307A407B507BB
:10060000F4F481E090E8AFEFBFEF89839A83AB8386
:10061000BC838F89988DFC0184859585A685B785D7
:10062000B095A095909581959F4FAF4FBF4F2F8963
:10063000388DF90182839383A483B58325C02F89E4
:10064000388D8B859C85AD85BE85F901828393832A
:10065000A483B5838F89988DFC01808591859C0149
:10066000990F440B550B8F89988DFC0182819381E2
:10067000A481B581BC01CD010E94320EDC01CB0109
:1006800089839A83AB83BC838F89988DFC014285D3
:1006900053858F89988DFC01208131818F819885C8
:1006A000281B390B429FC001439F900D529F900D14
:1006B0001124988B8F878F89988D2F813885FC0125
:1006C0003183208389859A859C01990F440B550BB2
:1006D00089819A81AB81BC81280F391F4A1F5B1F1A
:1006E0008F859889092E000CAA0BBB0B820F931FD4
:1006F000A41FB51F24E630E040E050E0BC01CD016E
:100700000E948C0EDA01C901898B9A8BAB8BBC8B52
:1007100089899A89AB89BC898F3F9105A105B1056B
:1007200019F014F08FEF09C089899A89AB89BC89C7
:10073000BB2314F480E001C089896C960FB6F8944D
:10074000DEBF0FBECDBFDF91CF910895CF93DF9372
:100750001F92CDB7DEB7898384E290E024E230E0D7
:10076000F90120812F7BFC01208384E290E024E2C8
:1007700030E0F90120812F77FC01208385E290E0B1
:1007800025E230E0F90120812064FC01208385E22C
:1007900090E025E230E0F90120812068FC0120830F
:1007A0008981882339F00E94AF0B81E994E00E948F
:1007B0009D0B1BC088E690E028E630E0F90120811F
:1007C0002160FC0120838BE690E02BE630E0F9010C
:1007D00020812064FC0120838BE690E02BE630E052
:1007E000F90120812068FC0120830F90DF91CF91D7
:1007F0000895CF93DF93CDB7DEB783E290E0FC019D
:100800008081882314F480E001C081E0DF91CF91E2
:100810000895CF93DF93CDB7DEB783E290E0FC017C
:100820008081882F90E080749927892B11F080E0D7
:1008300001C081E0DF91CF9108951F920F92009047
:100840005F000F92112400905B000F922F933F9353
:100850004F935F936F937F938F939F93AF93BF93C8
:10086000EF93FF93CF93DF93CDB7DEB70E940904D8
:10087000882361F080913C0890913D08892B31F0EC
:1008800080913C0890913D08FC0109950E94F90374
:10089000882361F080913E0890913F08892B31F0C8
:1008A00080913E0890913F08FC010995DF91CF911E
:1008B000FF91EF91BF91AF919F918F917F916F9138
:1008C0005F914F913F912F910F9000925B000F909D
:1008D00000925F000F901F901895CF93DF9300D088
:1008E000CDB7DEB79A83898389819A8190933D0839
:1008F00080933C080F900F90DF91CF910895CF9394
:10090000DF9300D0CDB7DEB79A83898389819A813E
:1009100090933F0880933E080F900F90DF91CF9106
:100920000895CF93DF9300D01F92CDB7DEB78091AB
:1009300040088B8380914108882F90E08E5B974F11
:10094000FC0110820E94F903882389F080914108FC
:10095000882F90E020914108222F30E02E5B374F06
:10096000F901208121608E5B974FFC0120830E945A
:100970000904882389F080914108882F90E0209114
:100980004108222F30E02E5B374FF9012081226091
:100990008E5B974FFC012083809141088F5F80938D
:1009A000410880914108853011F4109241088FEF81
:1009B00089831A820DC08A81882F90E08E5B974FC1
:1009C000FC0180819981892389838A818F5F8A8351
:1009D0008A81853080F38981809340088091400826
:1009E000882F90E081709927892B99F08B81882F2F
:1009F00090E081709927892B61F480913E08909155
:100A00003F08892B31F080913E0890913F08FC010E
:100A1000099580914008882F90E082709927892B52
:100A200099F08B81882F90E082709927892B61F44F
:100A300080913C0890913D08892B31F080913C08D1
:100A400090913D08FC0109950F900F900F90DF9158
:100A5000CF910895CF93DF93CDB7DEB783E390E0D6
:100A600023E330E0F90120812260FC0120830E9411
:100A70005D05DF91CF910895CF93DF93CDB7DEB7BA
:100A800084E390E024E330E0F901308122E0232781
:100A9000FC012083DF91CF910895CF93DF93CDB7F1
:100AA000DEB784E390E024E330E0F90120812D7F7C
:100AB000FC012083DF91CF910895CF93DF93CDB7D1
:100AC000DEB784E390E024E330E0F9012081226086
:100AD000FC012083DF91CF910895CF93DF93CDB7B1
:100AE000DEB780E390E020E330E0F9012081206868
:100AF000FC0120830E94A005DF91CF910895CF9340
:100B0000DF93CDB7DEB781E390E021E330E0F90178
:100B1000308120E82327FC012083DF91CF910895C5
:100B2000CF93DF93CDB7DEB781E390E021E330E0F0
:100B3000F90120812F77FC012083DF91CF91089567
:100B4000CF93DF93CDB7DEB781E390E021E330E0D0
:100B5000F90120812068FC012083DF91CF91089565
:100B6000CF93DF93CDB7DEB780E390E020E330E0B2
:100B7000F90120812064FC0120830E94E305DF91BC
:100B8000CF910895CF93DF93CDB7DEB781E390E0A7
:100B900021E330E0F901308120E42327FC012083A8
:100BA000DF91CF910895CF93DF93CDB7DEB781E387
:100BB00090E021E330E0F90120812F7BFC012083CC
:100BC000DF91CF910895CF93DF93CDB7DEB781E367
:100BD00090E021E330E0F90120812064FC012083D2
:100BE000DF91CF910895CF93DF93CDB7DEB7F8941F
:100BF00081E0DF91CF910895CF93DF9300D0CDB7FF
:100C0000DEB79A8389838FE590E029813A81F901E3
:100C10002081FC0120830F900F90DF91CF910895E8
:100C2000CF93DF93CDB7DEB787E498E09093700859
:100C300080936F0889E690E029E630E0F901208191
:100C40002260FC01208389E690E029E630E0F9018A
:100C500020812160FC0120838DE390E02DE330E0D2
:100C6000F90120812160FC0120838CE390E02CE3DA
:100C700030E0F90120812160FC01208381E291E0D4
:100C800021E231E0F90120812F7EFC01208381E205
:100C900091E021E231E0F90120812860FC0120830C
:100CA00080E291E020E231E0F90120812D7FFC011A
:100CB000208380E291E020E231E0F90120812E7F63
:100CC000FC01208381E291E021E231E0F901208101
:100CD0002460FC01208381E291E021E231E0F9010E
:100CE00020812D7FFC01208381E291E021E231E02F
:100CF000F90120812E7FFC01208388E291E029E622
:100D000038E1FC013183208383E790E023E730E082
:100D1000F90120812260FC0120838AE390E02AE32C
:100D200030E0F90120812260FC012083DF91CF9126
:100D30000895CF93DF9300D000D0CDB7DEB78FE515
:100D400090E0FC0180818C830E94F3058B8307C0B7
:100D500080917208909173089A8389831B828B819A
:100D60008823B1F7CE0104960E94FC0589819A81FF
:100D70000F900F900F900F90DF91CF910895CF9328
:100D8000DF93CDB7DEB780916F08909170088754DC
:100D9000984079F48BE598E09093700880936F0801
:100DA00087E498E00E94DF0787E498E00E945408F7
:100DB0000EC087E498E09093700880936F088BE5ED
:100DC00098E00E94DF078BE598E00E945408DF91CD
:100DD000CF9108951F920F9200905F000F921124FF
:100DE00000905B000F922F933F934F935F936F930D
:100DF0007F938F939F93AF93BF93EF93FF93CF9383
:100E0000DF9300D000D0CDB7DEB780916F0890910E
:100E100070089A838983809174088F5F8093740827
:100E2000209174088BEA289F812D1124982F969584
:100E30009695892F880F890F880F922F981B9923D9
:100E400009F04BC084E291E0FC01208131818AE10C
:100E500094EFB9010E94420ECB01909373088093E6
:100E600072080E94E305809171088A30B8F480917D
:100E70007108882F90E0880F991F29813A81820F8D
:100E8000931F2091720830917308FC0131832083F5
:100E9000809171088F5F8093710818C0109271085B
:100EA00080917108882F90E0880F991F29813A81DD
:100EB000820F931F2091720830917308FC013183D7
:100EC0002083809171088F5F8093710884E291E0A4
:100ED000FC0111821082109274080E947F050F900D
:100EE0000F900F900F90DF91CF91FF91EF91BF91F5
:100EF000AF919F918F917F916F915F914F913F91B2
:100F00002F910F9000925B000F9000925F000F9066
:100F10001F9018951F920F9200905F000F9211245E
:100F200000905B000F922F933F934F935F936F93CB
:100F30007F938F939F93AF93BF93EF93FF93CF9341
:100F4000DF9300D01F92CDB7DEB780916F089091EC
:100F500070089B838A8319820FC08981882F90E053
:100F6000880F991F2A813B81820F931FFC011182F8
:100F7000108289818F5F898389818A3070F3109212
:100F80007308109272080E94D3050F900F900F9073
:100F9000DF91CF91FF91EF91BF91AF919F918F9191
:100FA0007F916F915F914F913F912F910F900092A0
:100FB0005B000F9000925F000F901F901895CF93E9
:100FC000DF9300D000D000D0CDB7DEB79E838D83F5
:100FD00019825DC089818F5F8A8352C08981882F81
:100FE00090E0880F991F2D813E81820F931FFC0195
:100FF000208131818A81882F90E0880F991F4D814F
:101000005E81840F951FFC01808191818217930777
:10101000A0F58981882F90E0880F991F2D813E814E
:10102000820F931FFC01808191819C838B83898136
:10103000882F90E0880F991F2D813E81820F931F8A
:101040002A81222F30E0220F331F4D815E81240F31
:10105000351FF90120813181FC01318320838A8190
:10106000882F90E0880F991F2D813E81820F931F5A
:101070002B813C81FC01318320838A818F5F8A83AD
:101080008A818A3008F4AACF89818F5F8983898118
:101090008A3008F49FCF26960FB6F894DEBF0FBEB5
:1010A000CDBFDF91CF910895CF93DF9300D000D0D3
:1010B000CDB7DEB79C838B831A8219828B819C818A
:1010C0000A96FC01208131818B819C810896FC016C
:1010D00080819181820F931F969587959A8389834A
:1010E00089819A810F900F900F900F90DF91CF918F
:1010F0000895CF93DF93CDB7DEB784E690E024E682
:1011000030E0F90120812F7DFC01208383E390E012
:1011100023E330E0F90120812062FC01208385E493
:1011200090E025E430E0F9012081277FFC01208355
:1011300084E490E024E430E0F90120812260FC01A5
:10114000208384E490E024E430E0F90120812160F0
:10115000FC01208385E490E025E430E0F901208162
:101160002B7FFC01208385E490E025E430E0F90149
:1011700020812D7FFC01208385E490E025E430E090
:10118000F90120812160FC01208384E490E024E4C3
:1011900030E0F90120812062FC01208384E490E0AA
:1011A00024E430E0F90120812061FC012083DF91FB
:1011B000CF910895CF93DF931F92CDB7DEB7898388
:1011C00088E490E029812095FC0120830F90DF9135
:1011D000CF910895CF93DF93CDB7DEB7789481E0B8
:1011E000DF91CF910895CF93DF93CDB7DEB7F89419
:1011F00081E0DF91CF910895CF93DF9300D0CDB7F9
:10120000DEB79A8389838FE590E029813A81F901DD
:101210002081FC0120830F900F90DF91CF910895E2
:10122000CF93DF9300D0CDB7DEB780917708909150
:101230007808A0917908B0917A080196A11DB11D96
:101240008093770890937808A0937908B0937A08F0
:1012500080917508909176089A8389832DC0898141
:101260009A81FC0184819581892B91F489819A81ED
:10127000FC0120852160FC01208789819A81FC0185
:101280002681378189819A81FC01358324830DC0B1
:1012900089819A81FC01848195819C0121503109C9
:1012A00089819A81FC013583248389819A81FC019B
:1012B000818592859A83898389819A81892B79F6A0
:1012C0000F900F90DF91CF910895CF93DF93CDB71B
:1012D000DEB70E94390B80E199E00E94270BDF9175
:1012E000CF910895CF93DF93CDB7DEB72A970FB68E
:1012F000F894DEBF0FBECDBF8FE590E0FC0180818A
:1013000089870E94F3088B8352C080917508909161
:1013100076089A83898345C089819A81FC018085FA
:1013200081708823B9F189819A81FC018081918142
:101330009E838D8389819A81FC0182819381988724
:101340008F838FE590E0FC0180818A870E94EA0804
:101350008C8307C08F8198852D813E81F901099585
:101360001C828C818823B1F7CE010A960E94FC086A
:1013700089819A81FC0120852E7FFC01208789814B
:101380009A81FC0186819781892B21F489819A8138
:101390000E94530A89819A81FC01818592859A83F2
:1013A000898389819A81892B09F0B6CF1B828B8131
:1013B000882309F0AACFCE0109960E94FC089CCF91
:1013C000FF920F931F93CF93DF93CDB7DEB727978D
:1013D0000FB6F894DEBF0FBECDBF9F838E838FE51F
:1013E00090E0FC0180818D830E94F3088A833FC0D6
:1013F00080917508909176089C838B8318C08B81AF
:101400009C81FC01208131818E819F81FC01808142
:1014100091812817390721F4F12C00E010E02DC04C
:101420008B819C81FC01818592859C838B838B8140
:101430009C81892B21F78E819F81892B11F4198240
:1014400015C080917508909176089C838B838E815E
:101450009F8190937608809375088E819F812B8160
:101460003C81FC013287218781E089831A828A814D
:10147000882309F0BDCF01E010E0CE0105960E945F
:10148000FC080130110511F40000F9808F2D27961A
:101490000FB6F894DEBF0FBECDBFDF91CF911F9185
:1014A0000F91FF900895CF93DF93CDB7DEB72997C3
:1014B0000FB6F894DEBF0FBECDBF998788878FE542
:1014C00090E0FC0180818F830E94F30889834AC0E9
:1014D00080917508909176089B838A831D821C8277
:1014E0001E8236C02A813B81888599852817390755
:1014F00021F580917508909176082A813B81281703
:10150000390771F48091750890917608FC01818506
:101510009285909376088093750881E08E8318C039
:101520008A819B81FC01218532858C819D81FC0112
:101530003287218781E08E830BC08A819B819D83C6
:101540008C838A819B81FC01818592859B838A8320
:101550008A819B81892B29F09E8181E089278823BC
:1015600009F619828981882309F0B2CFCE01079646
:101570000E94FC0829960FB6F894DEBF0FBECDBFBF
:10158000DF91CF910895CF93DF9300D000D000D0AA
:10159000CDB7DEB78FE590E0FC0180818E830E949D
:1015A000F3088D830DC08091770890917808A09101
:1015B0007908B0917A0889839A83AB83BC831D82B2
:1015C0008D81882381F7CE0106960E94FC088981CF
:1015D0009A81AB81BC81BC01CD0126960FB6F894EF
:1015E000DEBF0FBECDBFDF91CF910895CF93DF93C4
:1015F00000D000D000D0CDB7DEB76B837C838D8365
:101600009E838FE590E0FC0180818A830E94F3082D
:1016100089830DC08B819C81AD81BE8180937708C9
:1016200090937808A0937908B0937A0819828981F9
:10163000882381F7CE0102960E94FC0826960FB6F9
:10164000F894DEBF0FBECDBFDF91CF910895CF9349
:10165000DF9300D0CDB7DEB79A83898389819A81E1
:1016600090937E0880937D080F900F90DF91CF912B
:101670000895CF93DF93CDB7DEB781EB90E021EBF8
:1016800030E0F9012081277FFC01208380EB90E08E
:1016900020EB30E0F90120812260FC01208380EB07
:1016A00090E020EB30E0F90120812E7FFC012083C7
:1016B00081EB90E021EB30E0F90120812460FC0116
:1016C000208381EB90E021EB30E0F90120812D7F38
:1016D000FC01208381EB90E021EB30E0F9012081D7
:1016E0002E7FFC01208380E790E020E730E0F901C5
:1016F00020812260FC01208387E390E027E330E033
:10170000F90120812260FC01208383EB90E029EF26
:10171000FC012083DF91CF910895CF93DF93CDB764
:10172000DEB781EB90E021EB30E0F90120812B7FE7
:10173000FC012083DF91CF910895CF93DF9300D0F8
:10174000CDB7DEB79A83898389819A8190937C088B
:1017500080937B080F900F90DF91CF910895CF93E6
:10176000DF93CDB7DEB781E890E021E830E0F90102
:1017700020812F7EFC01208381E890E021E830E089
:10178000F90120812860FC01208380E890E020E8B6
:1017900030E0F90120812D7FFC01208380E890E07A
:1017A00020E830E0F90120812E7FFC01208381E8D0
:1017B00090E021E830E0F90120812B7FFC012083BB
:1017C00081E890E021E830E0F90120812260FC010D
:1017D000208381E890E021E830E0F9012081216058
:1017E000FC0120838FE690E02FE630E0F9012081B4
:1017F0002260FC01208386E390E026E330E0F901DB
:1018000020812260FC01208388E890E021EE34E012
:10181000FC0131832083DF91CF910895CF93DF9333
:10182000CDB7DEB781E890E021E830E0F901208112
:101830002D7FFC01208381E890E021E830E0F90170
:1018400020812E7FFC012083DF91CF9108951F928C
:101850000F9200905F000F92112400905B000F9296
:101860002F933F934F935F936F937F938F939F93A8
:10187000AF93BF93EF93FF93CF93DF93CDB7DEB7D3
:1018800080917B0890917C08FC010995DF91CF91B4
:10189000FF91EF91BF91AF919F918F917F916F9148
:1018A0005F914F913F912F910F9000925B000F90AD
:1018B00000925F000F901F9018951F920F9200905A
:1018C0005F000F92112400905B000F922F933F93C3
:1018D0004F935F936F937F938F939F93AF93BF9338
:1018E000EF93FF93CF93DF93CDB7DEB780917D0861
:1018F00090917E08FC010995DF91CF91FF91EF91C6
:10190000BF91AF919F918F917F916F915F914F9117
:101910003F912F910F9000925B000F9000925F001B
:101920000F901F9018950E94D20D87FDFCCF08954F
:101930001F93CF93DF93D82FC62F142F6A3710F53C
:10194000843000F56D3340F081E00E94C90D0E94A3
:10195000930C83EC8C0F06C080E00E94C90D0E949E
:10196000930C8C2F0E94BF0D0E94930C8D2F886BBF
:101970000E94BF0D0E94930C812FDF91CF911F9188
:101980000C94B40DDF91CF911F9108958093680A54
:101990006093670A08950F931F93CF93DF939091FD
:1019A000670A8A3031F41092680A9F5F9093670A41
:1019B0002DC02091680A243129F41092680A9F5F93
:1019C0009093670A9091670A943000F596E0899F9A
:1019D00080011124C0E0D0E0075C1D4FF801EC0F3E
:1019E000FD1F8091680A682F660F680F660F6C0FE5
:1019F00040818091670A0E94980C2196C630D105DB
:101A000069F78091680A8F5F8093680ADF91CF91B0
:101A10001F910F9108950E94CB0C80E090E00895F3
:101A2000982F969596959695943008F03FC06A3712
:101A3000E8F58770A92FB0E0262F30E04423A1F00D
:101A40004AE74A9FF0014B9FF00D1124E20FF31F6C
:101A5000E158F74F41E050E001C0440F8A95EAF7A2
:101A60008081842B808314C04AE74A9FF0014B9FFA
:101A7000F00D1124E20FF31FE158F74F41E050E061
:101A800001C0440F8A95EAF740958081482340833E
:101A90008AE78A9FF0018B9FF00D1124E20FF31F5C
:101AA000E158F74F4081892F0C94980C0895FF92CC
:101AB0000F931F93CF93DF930FE718E0F12CC0E053
:101AC000D0E040E06C2F8F2D0E94980CF801EC0FB5
:101AD000FD1F10822196CA37D10599F7F394065855
:101AE0001F4F84E0F812EBCFDF91CF911F910F9140
:101AF000FF9008950E94AD0D80E00E94C90D0E94E4
:101B0000930C82EE0E94BF0D0E94930C8FEA0E94FC
:101B1000BF0D81E00E94C90D0E94930C82EE0E94CD
:101B2000BF0D0E94930C8FEA0E94BF0D0E94570DBB
:101B30001092680A1092670A8EE0E9E6FAE0DF0187
:101B40001D928A95E9F78BE09DE09093720A80934D
:101B5000710A82E080936C0A0895549A559A5D9AAE
:101B6000579A5F9A569A08955E9A9FEF9DB98EB9DB
:101B70005D980000000000005D9A5E9808955E98F0
:101B80009FEF9DB98EB95D980000000000005D9A3E
:101B900008952BB130E1839FC00111242F7E282BA3
:101BA0002BB908955E981DB81EB85F98000000001C
:101BB00000008CB15F9A08950F931F938B019C01D5
:101BC0008091850A811138C081E08093850AC9011E
:101BD000B801775F824C9F4F42E0660F771F881FE6
:101BE000991F4A95D1F7A9019801E3E0220F331F0D
:101BF000441F551FEA95D1F70E946A0E2150310902
:101C00003093CD002093CC0022E02093C80086E0E2
:101C10008093CA0088E18093C9008EE0E7E7FAE08C
:101C2000DF011D928A95E9F78DE29EE09093800A8C
:101C300080937F0A20937A0A1F910F9108958091D3
:101C4000C80087FFFCCF8091CE0008959091C80016
:101C500095FFFCCF8093CE0008950E94260E80E071
:101C600090E00895DB018F939F930E94AB0EBF918C
:101C7000AF91A29F800D911DA39F900DB29F900DDB
:101C800011240895AA1BBB1B51E107C0AA1FBB1F4B
:101C9000A617B70710F0A61BB70B881F991F5A95F8
:101CA000A9F780959095BC01CD01089597FB072E6B
:101CB00016F4009407D077FD09D00E94420E07FC6D
:101CC00005D03EF4909581959F4F0895709561954C
:101CD0007F4F0895A1E21A2EAA1BBB1BFD010DC068
:101CE000AA1FBB1FEE1FFF1FA217B307E407F507CC
:101CF00020F0A21BB30BE40BF50B661F771F881FA8
:101D0000991F1A9469F760957095809590959B013D
:101D1000AC01BD01CF010895052E97FB1EF4009480
:101D20000E94A30E57FD07D00E946A0E07FC03D045
:101D30004EF40C94A30E50954095309521953F4F4D
:101D40004F4F5F4F089590958095709561957F4FA7
:101D50008F4F9F4F08950E94B60EA59F900DB49F80
:101D6000900DA49F800D911D11240895A29FB00194
:101D7000B39FC001A39F700D811D1124911DB29FBF
:101D8000700D811D1124911D0895CF93DF93CDB760
:101D9000DEB7AE01475F5F4F6F8178858D819E8191
:101DA0000E94D50EDF91CF9108952F923F924F92CE
:101DB0005F926F927F928F929F92AF92BF92CF92DB
:101DC000DF92EF92FF920F931F93CF93DF93CDB7E4
:101DD000DEB72C970FB6F894DEBF0FBECDBF7C01E7
:101DE0006B018A01FC0117821682838181FFBDC1CC
:101DF000CE0101964C01F7019381F60193FD859187
:101E000093FF81916F01882309F4ABC1853239F4C6
:101E100093FD859193FF81916F01853229F4B7017C
:101E200090E00E94E610E7CF512C312C20E02032C8
:101E3000A0F48B3269F030F4803259F0833269F4C7
:101E400020612CC08D3239F0803339F4216026C0F6
:101E50002260246023C0286021C027FD27C030ED08
:101E6000380F3A3078F426FF06C0FAE05F9E300D56
:101E70001124532E13C08AE0389E300D1124332EC6
:101E800020620CC08E3221F426FD6BC1206406C096
:101E90008C3611F4206802C0883641F4F60193FDB7
:101EA000859193FF81916F018111C1CF982F9F7D03
:101EB0009554933028F40C5F1F4FFFE3F9830DC056
:101EC000833631F0833771F0833509F05BC022C06F
:101ED000F801808189830E5F1F4F44244394512C65
:101EE000540115C03801F2E06F0E711CF801A0809A
:101EF000B18026FF03C0652D70E002C06FEF7FEF59
:101F0000C5012C870E94DB102C0183012C852F77C3
:101F1000222E17C03801F2E06F0E711CF801A0806C
:101F2000B18026FF03C0652D70E002C06FEF7FEF28
:101F3000C5012C870E94D0102C012C852068222EF0
:101F4000830123FC1BC0832D90E048165906B0F492
:101F5000B70180E290E00E94E6103A94F4CFF501D8
:101F600027FC859127FE81915F01B70190E00E94D7
:101F7000E61031103A94F1E04F1A5108411451041F
:101F800071F7E5C0843611F0893639F5F80127FF7D
:101F900007C060817181828193810C5F1F4F08C0EF
:101FA00060817181072E000C880B990B0E5F1F4F0B
:101FB0002F76722E97FF09C0909580957095619548
:101FC0007F4F8F4F9F4F2068722E2AE030E0A40190
:101FD0000E941E11A82EA81844C0853729F42F7E10
:101FE000B22E2AE030E025C0F22FF97FBF2E8F36C7
:101FF000C1F018F4883579F0B4C0803719F088370B
:1020000021F0AFC02F2F2061B22EB4FE0DC08B2D5A
:102010008460B82E09C024FF0AC09F2F9660B92E95
:1020200006C028E030E005C020E130E002C020E139
:1020300032E0F801B7FE07C060817181828193812F
:102040000C5F1F4F06C06081718180E090E00E5FE1
:102050001F4FA4010E941E11A82EA818FB2DFF7768
:102060007F2E76FE0BC0372D3E7FA51450F474FEF4
:102070000AC072FC08C0372D3E7E05C0BA2C372D31
:1020800003C0BA2C01C0B52C34FF0DC0FE01EA0D0F
:10209000F11D8081803311F4397E09C032FF06C002
:1020A000B394B39404C0832F867809F0B39433FDBE
:1020B00013C030FF06C05A2CB31418F4530C5B182D
:1020C000B32CB31468F4B70180E290E03C870E941F
:1020D000E610B3943C85F5CFB31410F43B1801C05F
:1020E000312C34FF12C0B70180E390E03C870E949E
:1020F000E6103C8532FF17C031FD03C088E790E051
:1021000002C088E590E0B7010CC0832F867859F0B3
:1021100031FF02C08BE201C080E237FD8DE2B701E2
:1021200090E00E94E610A51438F4B70180E390E037
:102130000E94E6105A94F7CFAA94F401EA0DF11D1B
:102140008081B70190E00E94E610A110F5CF332006
:1021500009F451CEB70180E290E00E94E6103A9473
:10216000F6CFF7018681978102C08FEF9FEF2C9603
:102170000FB6F894DEBF0FBECDBFDF91CF911F9198
:102180000F91FF90EF90DF90CF90BF90AF909F9016
:102190008F907F906F905F904F903F902F90089519
:1021A000FC010590615070400110D8F78095909522
:1021B0008E0F9F1F0895FC01615070400190011027
:1021C000D8F7809590958E0F9F1F08950F931F93BA
:1021D000CF93DF93FB01238121FD03C08FEF9FEF9E
:1021E00028C022FF16C046815781248135814217BD
:1021F000530744F4A081B1819D012F5F3F4F31838C
:1022000020838C93268137812F5F3F4F378326832E
:1022100010C0EB01092F182F0084F185E02D0995DE
:10222000892BE1F68E819F8101969F838E83812F7A
:10223000902FDF91CF911F910F910895FA01AA2756
:10224000283051F1203181F1E8946F936E7F6E5FF9
:102250007F4F8F4F9F4FAF4FB1E03ED0B4E03CD0A7
:10226000670F781F891F9A1FA11D680F791F8A1F8A
:10227000911DA11D6A0F711D811D911DA11D20D0F1
:1022800009F468943F912AE0269F11243019305DAB
:102290003193DEF6CF010895462F4770405D41939C
:1022A000B3E00FD0C9F7F6CF462F4F70405D4A33E9
:1022B00018F0495D31FD4052419302D0A9F7EACFB1
:1022C000B4E0A6959795879577956795BA95C9F7E0
:1022D00000976105710508959B01AC010A2E0694D3
:1022E0005795479537952795BA95C9F7620F731F8C
:0C22F000841F951FA01D0895F894FFCFD7
:1022FC0001690A770A256409202564202020202002
:10230C00200A002564092025640A007265616C208E
:10231C00647574796379636C653A2025640A006589
:10232C0072726F722025640A000000000000000029
:10233C003E4551453E003E6B6F6B3E001C3E7C3E65
:10234C001C00183C7E3C180030367F363000185C80
:10235C007E5C18000000000000000000000000007F
:10236C0000000000000000000000000030484A3669
:10237C000E00062979290600000000000000607E8E
:10238C000A353F002A1C361C2A00007F3E1C080020
:10239C00081C3E7F000014367F361400005F005F7F
:1023AC00000006097F017F00224D55592200606014
:1023BC006060000014B6FFB6140004067F0604002B
:1023CC0010307F30100008083E1C0800081C3E0826
:1023DC000800784040404000083E083E0800303C71
:1023EC003F3C3000030F3F0F0300000000000000D3
:1023FC0000065F060000070300070300247E247E0E
:10240C002400242B6A12000063130864630036490D
:10241C0056205000000703000000003E4100000061
:10242C0000413E000000083E1C3E080008083E0823
:10243C00080000E0600000000808080808000060C0
:10244C00600000002010080402003E5149453E0087
:10245C0000427F40000062514949460022494949E7
:10246C0036001814127F10002F49494931003C4A9C
:10247C0049493000017109050300364949493600C4
:10248C00064949291E00006C6C00000000EC6C0031
:10249C0000000814224100002424242424000041BC
:1024AC00221408000201590906003E415D551E0028
:1024BC007E1111117E007F49494936003E41414150
:1024CC0022007F4141413E007F49494941007F093B
:1024DC00090901003E4149497A007F0808087F003C
:1024EC0000417F410000304040403F007F081422F3
:1024FC0041007F40404040007F0204027F007F0289
:10250C0004087F003E4141413E007F090909060055
:10251C003E4151215E007F0909196600264949494F
:10252C00320001017F0101003F4040403F001F206D
:10253C0040201F003F403C403F00631408146300E0
:10254C00070870080700714945430000007F4141AE
:10255C0000000204081020000041417F000004022A
:10256C00010204808080808080000003070000004E
:10257C002054545478007F44444438003844444434
:10258C002800384444447F00385454540800087ED2
:10259C000909000018A4A4A47C007F04047800009E
:1025AC0000007D4000004080847D00007F102844A6
:1025BC00000000007F4000007C04180478007C04BC
:1025CC0004780000384444443800FC444444380047
:1025DC0038444444FC0044784404080008545454DF
:1025EC002000043E442400003C40207C00001C20C1
:1025FC0040201C003C6030603C006C10106C0000F3
:10260C009CA0603C00006454544C0000083E4141C6
:10261C0000000000770000000041413E080002016C
:10262C00020100003C2623263C001EA1E1211200E1
:10263C003D40207D00003854545509002055555517
:10264C007800205554557800205555547800205763
:10265C00555778001CA2E222140038555555080035
:10266C0038555455080038555554080000017C4124
:10267C00000000017D41000000017C400000702939
:10268C0024297000782F252F78007C545455450050
:10269C0034547C5458007E097F49490038454539EB
:1026AC0000003845443900003945443800003C41AD
:1026BC00217D00003D41207C00009CA1603D00007C
:1026CC003D42423D00003C41403D0080706858381E
:1026DC000400483E494962007E615D433F0022147C
:1026EC000814220040887E090200205455557800B9
:1026FC0000007D4100003844453900003C40217DFC
:10270C0000007A090A7100007A112279000008553C
:10271C0055555E004E51514E000030484D40203E04
:10272C00415D4B553E04040404041C0017084C6A1C
:10273C0050001708342A780000307D30000008144F
:10274C00000814001408001408441144114411AA80
:10275C0055AA55AA55BBEEBBEEBBEE000000FF0020
:10276C0000080808FF000000702825297000702957
:10277C002529700070292528703E415D55413E0A7F
:10278C00FB00FF000000FF00FF00000AFA02FE0041
:10279C00000A0B080F000000182466240000292AE8
:1027AC007C2A29080808F800000000000F08080817
:1027BC0008080F0808080808F80808000000FF08B7
:1027CC0008080808080808080808FF080800205628
:1027DC0055567900702A252A71000F080B0A0A0039
:1027EC00FE02FA0A0A0A0B080B0A0A0AFA02FA0A89
:1027FC000A00FF00FB0A0A0A0A0A0A0A0A0AFB0074
:10280C00FB0A0A005D2222225D002255593000008D
:10281C00087F49413E007C55555544007C55545524
:10282C0044007C555554440000000700000000444F
:10283C007D45000000457D45000000457C450008B5
:10284C0008080F0000000000F80808FFFFFFFFFF5A
:10285C00FFF0F0F0F0F0F000000077000000004511
:10286C007D44000F0F0F0F0F0F003C42433D000043
:10287C00FE4A4A3400003C43433D00003D43423C89
:10288C00000032494A3100003A4546390000FC202C
:10289C00201C0000FEAA28100000FFA52418000030
:1028AC003C40413D00003C41413D00003D41403C2D
:1028BC0000009CA0613D00000408710904000002A6
:1028CC0002020000000703000000000808080000D6
:1028DC0000242E240000242424242405170A342A3E
:1028EC00780006097F017F00224D55592200080807
:1028FC002A0808000008181800000609090600003C
:10290C00000800080000000800000000020F000092
:10291C000000090F05000000090D0A0000003C3CF6
:0A292C003C3C000000000000000029
:00000001FF
