:100000000C9490000C94AF000C94AF000C94AF00D3
:100010000C94AF000C94AF000C94AF000C94AF00A4
:100020000C94AF000C94AF000C94AF000C94AF0094
:100030000C94AF000C94AF000C94AF000C94AF0084
:100040000C94AF000C94AF000C94AF000C94AF0074
:100050000C94AF000C94AF000C94AF000C94AF0064
:100060000C94AF000C94AF000C94AF000C94AF0054
:100070000C94AF000C94AF000C94AF000C94AF0044
:100080000C94AF000C94AF000C94AF000C94AF0034
:100090000C94AF000C94AF000C94AF000C94AF0024
:1000A0000C94AF000C94AF000C94AF000C94AF0014
:1000B0000C94AF000C94AF000C94AF000C94AF0004
:1000C0000C94AF000C94AF000C94AF000C94AF00F4
:1000D0000C94AF000C94AF000C94AF000C94AF00E4
:1000E0000C94AF000C94AF000C94AF000C94AF00D4
:1000F0000C94AF000C94AF000C94AF000C94AF00C4
:100100000C94AF000C94AF000C94AF000C94AF00B3
:100110000C94AF000C94AF000C94AF000C94AF00A3
:1001200011241FBECFEFD1E4DEBFCDBF12E0A0E0AF
:10013000B2E0E0E2F4E000E00BBF02C007900D92F5
:10014000A230B107D9F722E0A2E0B2E001C01D92CF
:10015000A131B207E1F70E94B1000C940E020C9499
:100160000000CF93DF931F92CDB7DEB760E071EE52
:1001700080E090E00E9496010E94CD000E94530111
:100180000E9476010E94D90189838981813621F4F8
:100190000E9465010E94DF00F5CFCF93DF93CDB7BA
:1001A000DEB783E390E023E330E0F90120812260B1
:1001B000FC0120830E940001DF91CF910895CF932D
:1001C000DF93CDB7DEB784E390E024E330E0F901BC
:1001D000308122E02327FC012083DF91CF91089515
:1001E000CF93DF93CDB7DEB784E390E024E330E034
:1001F000F90120812D7FFC012083DF91CF910895AB
:10020000CF93DF93CDB7DEB784E390E024E330E013
:10021000F90120812260FC012083DF91CF910895B4
:10022000CF93DF93CDB7DEB780E390E020E330E0FB
:10023000F90120812068FC0120830E944301DF91A5
:10024000CF910895CF93DF93CDB7DEB781E390E0F0
:1002500021E330E0F901308120E82327FC012083ED
:10026000DF91CF910895CF93DF93CDB7DEB781E3D0
:1002700090E021E330E0F90120812F77FC01208319
:10028000DF91CF910895CF93DF93CDB7DEB781E3B0
:1002900090E021E330E0F90120812068FC01208317
:1002A000DF91CF910895CF93DF93CDB7DEB780E391
:1002B00090E020E330E0F90120812064FC012083FC
:1002C0000E948601DF91CF910895CF93DF93CDB740
:1002D000DEB781E390E021E330E0F901308120E4F2
:1002E0002327FC012083DF91CF910895CF93DF93E3
:1002F000CDB7DEB781E390E021E330E0F901208162
:100300002F7BFC012083DF91CF910895CF93DF9362
:10031000CDB7DEB781E390E021E330E0F901208141
:100320002064FC012083DF91CF9108950F931F93E8
:100330008B019C0180911002811138C081E0809373
:100340001002C901B801775F824C9F4F42E0660FEF
:10035000771F881F991F4A95D1F7A9019801E3E0FB
:10036000220F331F441F551FEA95D1F70E94EC015D
:10037000215031093093CD002093CC0022E020930E
:10038000C80086E08093CA0088E18093C9008EE0AF
:10039000E2E0F2E0DF011D928A95E9F787EE91E055
:1003A00090930B0280930A02209305021F910F91F4
:1003B00008958091C80087FFFCCF8091CE000895FA
:1003C0009091C80095FFFCCF8093CE0008950E94C5
:1003D000E00180E090E00895A1E21A2EAA1BBB1B69
:1003E000FD010DC0AA1FBB1FEE1FFF1FA217B30701
:1003F000E407F50720F0A21BB30BE40BF50B661F17
:10040000771F881F991F1A9469F7609570958095DA
:1004100090959B01AC01BD01CF010895F894FFCFE9
:020420000202D6
:00000001FF
