:100000000C9490000C94AF000C94AF000C94AF00D3
:100010000C94AF000C94AF000C94AF000C94AF00A4
:100020000C94AF000C949D020C94AF000C94AF00A4
:100030000C94AF000C94E6070C94AF000C94AF0046
:100040000C94AF000C94B0070C94AF000C94AF006C
:100050000C94AF000C94AF000C94AF000C94AF0064
:100060000C94AF000C94AF000C94AF000C94AF0054
:100070000C94AF000C94AF000C94AF000C94AF0044
:100080000C94AF000C94AF000C94AF000C94AF0034
:100090000C94AF000C94AF000C94AF000C94AF0024
:1000A0000C94AF000C94AF000C94AF000C94AF0014
:1000B0000C94AF000C94AF000C94AF000C94AF0004
:1000C0000C94AF000C94AF000C94AF000C94AF00F4
:1000D0000C94AF000C94AF000C94AF000C94AF00E4
:1000E0000C94AF000C94AF000C94AF000C94AF00D4
:1000F0000C94AF000C94AF000C94AF000C94AF00C4
:100100000C94AF000C94AF000C94AF000C94AF00B3
:100110000C94AF000C94AF000C94AF000C94AF00A3
:1001200011241FBECFEFD1E4DEBFCDBF18E0A0E0A9
:10013000B2E0EEEDF8E100E00BBF02C007900D92D7
:10014000A235B107D9F72AE0A2E5B8E001C01D92B7
:10015000AD36B207E1F70E94B1000C946D0C0C941F
:100160000000CF93DF93CDB7DEB7A1970FB6F89419
:10017000DEBF0FBECDBF81E00E9426020E94300488
:100180000E94ED030E94AA030E9403090E94EE044C
:1001900086E291E09A83898380ED97E09E838D8348
:1001A00080ED97E098878F8389858E7F89871B866E
:1001B0001A86CE0101960E94690584E391E09D872D
:1001C0008C87198A188A85E090E09B8B8A8B8C89B2
:1001D0008E7F8C8B1E8A1D8ACE010C960E9469052B
:1001E00082E591E00E94FF0280910102909102025B
:1001F0009C0145E350E061E070E083E092E00E9402
:1002000084098CE991E00E94ED0282EB91E0988FE5
:100210008F8B1C8E1B8E84E690E09E8F8D8F8F8D32
:100220008E7F8F8F19A218A2CE0147960E94690572
:1002300078940E94FB0481E090E0A1960FB6F894B8
:10024000DEBF0FBECDBFDF91CF910895CF93DF9377
:1002500000D0CDB7DEB79A8389830E9442040F9005
:100260000F90DF91CF910895CF93DF9300D0CDB75A
:10027000DEB79A8389830E9411030F900F90DF915C
:10028000CF910895CF93DF9300D0CDB7DEB79A8397
:1002900089830E942004109252080F900F90DF91E2
:1002A000CF910895CF93DF93CDB7DEB780915208F9
:1002B000882F90E021E0892B09F420E081E082275B
:1002C000882F90E081708093520880915208882393
:1002D00031F10E94100482E491E0909354088093DD
:1002E000530883E598E0909356088093550888E872
:1002F00093E1909358088093570810925A081092EF
:10030000590880915B088E7F80935B0810925D088E
:1003100010925C0883E598E00E9469050AC00E947B
:10032000DD0383E598E00E94420183E598E00E94A6
:10033000DC05DF91CF910895CF93DF93CDB7DEB782
:1003400080910002882F90E021E0892B09F420E0C1
:1003500081E08227882F90E0817080930002DF91F6
:10036000CF910895CF93DF9300D000D0CDB7DEB703
:100370009C838B8380910002882309F060C0809168
:100380005E0890915F08019690935F0880935E08E5
:1003900080915E0890915F089C01ADECBCEC0E94DE
:1003A00065099695879596958795969587958983FE
:1003B00040915E0850915F089A01ADECBCEC0E9440
:1003C0006509969587959695879596958795880F53
:1003D000991F9C01220F331F220F331F820F931F7F
:1003E0009A01281B390BC9018A830E94E0088A817F
:1003F000482F50E08981282F30E0809101029091B0
:100400000202652F6F934F93432F4F932F9329E34E
:1004100032E0232F2F9329E332E02F93292F2F93BC
:100420008F930E9474098DB79EB708960FB6F89403
:10043000DEBF0FBECDBF60E080E00E944F080F908E
:100440000F900F900F90DF91CF910895CF93DF938E
:100450001F92CDB7DEB7898384E290E024E230E0DA
:10046000F90120812F7BFC01208384E290E024E2CB
:1004700030E0F90120812F77FC01208385E290E0B4
:1004800025E230E0F90120812064FC01208385E22F
:1004900090E025E230E0F90120812068FC01208312
:1004A0008981882339F00E94380781E193E00E9416
:1004B00026071BC088E690E028E630E0F90120819D
:1004C0002160FC0120838BE690E02BE630E0F9010F
:1004D00020812064FC0120838BE690E02BE630E055
:1004E000F90120812068FC0120830F90DF91CF91DA
:1004F0000895CF93DF93CDB7DEB783E290E0FC01A0
:100500008081882314F480E001C081E0DF91CF91E5
:100510000895CF93DF93CDB7DEB783E290E0FC017F
:100520008081882F90E080749927892B11F080E0DA
:1005300001C081E0DF91CF9108951F920F9200904A
:100540005F000F92112400905B000F922F933F9356
:100550004F935F936F937F938F939F93AF93BF93CB
:10056000EF93FF93CF93DF93CDB7DEB70E9489025D
:10057000882361F08091600890916108892B31F0A7
:100580008091600890916108FC0109950E947902B0
:10059000882361F08091620890916308892B31F083
:1005A0008091620890916308FC010995DF91CF91D9
:1005B000FF91EF91BF91AF919F918F917F916F913B
:1005C0005F914F913F912F910F9000925B000F90A0
:1005D00000925F000F901F901895CF93DF9300D08B
:1005E000CDB7DEB79A83898389819A819093610818
:1005F000809360080F900F90DF91CF910895CF9373
:10060000DF9300D0CDB7DEB79A83898389819A8141
:1006100090936308809362080F900F90DF91CF91C1
:100620000895CF93DF9300D01F92CDB7DEB78091AE
:1006300064088B8380916508882F90E08A59974FD2
:10064000FC0110820E947902882389F0809165085C
:10065000882F90E020916508222F30E02A59374FEB
:10066000F901208121608A59974FFC0120830E9463
:100670008902882389F080916508882F90E0209175
:100680006508222F30E02A59374FF9012081226076
:100690008A59974FFC012083809165088F5F809372
:1006A000650880916508853011F4109265088FEF18
:1006B00089831A820DC08A81882F90E08A59974FCA
:1006C000FC0180819981892389838A818F5F8A8354
:1006D0008A81853080F389818093640880916408E1
:1006E000882F90E081709927892B99F08B81882F32
:1006F00090E081709927892B61F480916208909134
:100700006308892B31F08091620890916308FC01A5
:10071000099580916408882F90E082709927892B31
:1007200099F08B81882F90E082709927892B61F452
:100730008091600890916108892B31F08091600868
:1007400090916108FC0109950F900F900F90DF9137
:10075000CF910895CF93DF93CDB7DEB783E390E0D9
:1007600023E330E0F90120812260FC0120830E9414
:10077000DD03DF91CF910895CF93DF93CDB7DEB73F
:1007800084E390E024E330E0F901308122E0232784
:10079000FC012083DF91CF910895CF93DF93CDB7F4
:1007A000DEB784E390E024E330E0F90120812D7F7F
:1007B000FC012083DF91CF910895CF93DF93CDB7D4
:1007C000DEB784E390E024E330E0F9012081226089
:1007D000FC012083DF91CF910895CF93DF93CDB7B4
:1007E000DEB780E390E020E330E0F901208120686B
:1007F000FC0120830E942004DF91CF910895CF93C4
:10080000DF93CDB7DEB781E390E021E330E0F9017B
:10081000308120E82327FC012083DF91CF910895C8
:10082000CF93DF93CDB7DEB781E390E021E330E0F3
:10083000F90120812F77FC012083DF91CF9108956A
:10084000CF93DF93CDB7DEB781E390E021E330E0D3
:10085000F90120812068FC012083DF91CF91089568
:10086000CF93DF93CDB7DEB780E390E020E330E0B5
:10087000F90120812064FC0120830E946304DF9140
:10088000CF910895CF93DF93CDB7DEB781E390E0AA
:1008900021E330E0F901308120E42327FC012083AB
:1008A000DF91CF910895CF93DF93CDB7DEB781E38A
:1008B00090E021E330E0F90120812F7BFC012083CF
:1008C000DF91CF910895CF93DF93CDB7DEB781E36A
:1008D00090E021E330E0F90120812064FC012083D5
:1008E000DF91CF910895CF93DF93CDB7DEB77894A2
:1008F00081E0DF91CF910895CF93DF93CDB7DEB73D
:10090000F89481E0DF91CF910895CF93DF9300D0E9
:10091000CDB7DEB79A8389838FE590E029813A814C
:10092000F9012081FC0120830F900F90DF91CF917E
:100930000895CF93DF9300D0CDB7DEB780916D08D7
:1009400090916E08A0916F08B09170080196A11D5A
:10095000B11D80936D0890936E08A0936F08B093BB
:10096000700880916B0890916C089A8389832DC0E0
:1009700089819A81FC0184819581892B91F48981F7
:100980009A81FC0120852160FC01208789819A8160
:10099000FC012681378189819A81FC01358324837A
:1009A0000DC089819A81FC01848195819C0121502F
:1009B000310989819A81FC013583248389819A8157
:1009C000FC01818592859A83898389819A81892B0B
:1009D00079F60F900F90DF91CF910895CF93DF9329
:1009E000CDB7DEB70E94C20689E994E00E94B00646
:1009F000DF91CF910895CF93DF93CDB7DEB72A97DC
:100A00000FB6F894DEBF0FBECDBF8FE590E0FC01BE
:100A1000808189870E947C048B8352C080916B08FF
:100A200090916C089A83898345C089819A81FC01E1
:100A3000808581708823B9F189819A81FC01808148
:100A400091819E838D8389819A81FC01828193812A
:100A500098878F838FE590E0FC0180818A870E94D0
:100A600073048C8307C08F8198852D813E81F901A5
:100A700009951C828C818823B1F7CE010A960E94C9
:100A8000850489819A81FC0120852E7FFC012087C5
:100A900089819A81FC0186819781892B21F4898142
:100AA0009A810E94DC0589819A81FC018185928569
:100AB0009A83898389819A81892B09F0B6CF1B8219
:100AC0008B81882309F0AACFCE0109960E94850464
:100AD0009CCFFF920F931F93CF93DF93CDB7DEB7D9
:100AE00027970FB6F894DEBF0FBECDBF9F838E83CE
:100AF0008FE590E0FC0180818D830E947C048A83D5
:100B00003FC080916B0890916C089C838B8318C0C8
:100B10008B819C81FC01208131818E819F81FC0130
:100B2000808191812817390721F4F12C00E010E031
:100B30002DC08B819C81FC01818592859C838B8358
:100B40008B819C81892B21F78E819F81892B11F4C8
:100B5000198215C080916B0890916C089C838B83DF
:100B60008E819F8190936C0880936B088E819F810A
:100B70002B813C81FC013287218781E089831A82A5
:100B80008A81882309F0BDCF01E010E0CE010596EF
:100B90000E9485040130110511F40000F9808F2DA9
:100BA00027960FB6F894DEBF0FBECDBFDF91CF9171
:100BB0001F910F91FF900895CF93DF93CDB7DEB7CC
:100BC00029970FB6F894DEBF0FBECDBF99878887EF
:100BD0008FE590E0FC0180818F830E947C048983F3
:100BE0004AC080916B0890916C089B838A831D8218
:100BF0001C821E8236C02A813B81888599852817F0
:100C0000390721F580916B0890916C082A813B810E
:100C10002817390771F480916B0890916C08FC01DA
:100C20008185928590936C0880936B0881E08E8318
:100C300018C08A819B81FC01218532858C819D8130
:100C4000FC013287218781E08E830BC08A819B81E2
:100C50009D838C838A819B81FC01818592859B8306
:100C60008A838A819B81892B29F09E8181E0892753
:100C7000882309F619828981882309F0B2CFCE0131
:100C800007960E94850429960FB6F894DEBF0FBE22
:100C9000CDBFDF91CF910895CF93DF9300D000D0E7
:100CA00000D0CDB7DEB78FE590E0FC0180818E8368
:100CB0000E947C048D830DC080916D0890916E0818
:100CC000A0916F08B091700889839A83AB83BC832D
:100CD0001D828D81882381F7CE0106960E948504AE
:100CE00089819A81AB81BC81BC01CD0126960FB66A
:100CF000F894DEBF0FBECDBFDF91CF910895CF93A3
:100D0000DF9300D000D000D0CDB7DEB76B837C83FB
:100D10008D839E838FE590E0FC0180818A830E9411
:100D20007C0489830DC08B819C81AD81BE818093C1
:100D30006D0890936E08A0936F08B09370081982A5
:100D40008981882381F7CE0102960E948504269628
:100D50000FB6F894DEBF0FBECDBFDF91CF910895DF
:100D6000CF93DF9300D0CDB7DEB79A838983898193
:100D70009A8190937408809373080F900F90DF917D
:100D8000CF910895CF93DF93CDB7DEB781EB90E09D
:100D900021EB30E0F9012081277FFC01208380EBEB
:100DA00090E020EB30E0F90120812260FC012083FB
:100DB00080EB90E020EB30E0F90120812E7FFC01F8
:100DC000208381EB90E021EB30E0F9012081246069
:100DD000FC01208381EB90E021EB30E0F9012081E0
:100DE0002D7FFC01208381EB90E021EB30E0F901C5
:100DF00020812E7FFC01208380E790E020E730E017
:100E0000F90120812260FC01208387E390E027E341
:100E100030E0F90120812260FC01208383EB90E027
:100E200029EFFC012083DF91CF910895CF93DF93C9
:100E3000CDB7DEB781EB90E021EB30E0F901208106
:100E40002B7FFC012083DF91CF910895CF93DF9317
:100E500000D0CDB7DEB79A83898389819A81909338
:100E60007208809371080F900F90DF91CF910895D1
:100E7000CF93DF93CDB7DEB781E890E021E830E093
:100E8000F90120812F7EFC01208381E890E021E898
:100E900030E0F90120812860FC01208380E890E0A7
:100EA00020E830E0F90120812D7FFC01208380E8DB
:100EB00090E020E830E0F90120812E7FFC012083C2
:100EC00081E890E021E830E0F90120812B7FFC01EE
:100ED000208381E890E021E830E0F9012081226060
:100EE000FC01208381E890E021E830E0F9012081D5
:100EF0002160FC0120838FE690E02FE630E0F901CD
:100F000020812260FC01208386E390E026E330E02C
:100F1000F90120812260FC01208388E890E021EE25
:100F200034E0FC0131832083DF91CF910895CF938A
:100F3000DF93CDB7DEB781E890E021E830E0F9013A
:100F400020812D7FFC01208381E890E021E830E0C2
:100F5000F90120812E7FFC012083DF91CF9108953C
:100F60001F920F9200905F000F92112400905B007F
:100F70000F922F933F934F935F936F937F938F9332
:100F80009F93AF93BF93EF93FF93CF93DF93CDB72F
:100F9000DEB78091710890917208FC010995DF918C
:100FA000CF91FF91EF91BF91AF919F918F917F91E1
:100FB0006F915F914F913F912F910F9000925B0045
:100FC0000F9000925F000F901F9018951F920F9244
:100FD00000905F000F92112400905B000F922F93FE
:100FE0003F934F935F936F937F938F939F93AF93B1
:100FF000BF93EF93FF93CF93DF93CDB7DEB780918D
:10100000730890917408FC010995DF91CF91FF91CD
:10101000EF91BF91AF919F918F917F916F915F9170
:101020004F913F912F910F9000925B000F90009293
:101030005F000F901F9018950E945B0987FDFCCF01
:1010400008951F93CF93DF93D82FC62F142F6A379D
:1010500010F5843000F56D3340F081E00E945209B4
:101060000E941C0883EC8C0F06C080E00E9452098D
:101070000E941C088C2F0E9448090E941C088D2F7A
:10108000886B0E9448090E941C08812FDF91CF9134
:101090001F910C943D09DF91CF911F91089580938A
:1010A0005E0A60935D0A08950F931F93CF93DF93B9
:1010B00090915D0A8A3031F410925E0A9F5F90939E
:1010C0005D0A2DC020915E0A243129F410925E0A37
:1010D0009F5F90935D0A90915D0A943000F596E0D1
:1010E000899F80011124C0E0D0E00E5A1D4FF80105
:1010F000EC0FFD1F80915E0A682F660F680F660F68
:101100006C0F408180915D0A0E9421082196C630B3
:10111000D10569F780915E0A8F5F80935E0ADF9147
:10112000CF911F910F9108950E94540880E090E0A4
:101130000895982F969596959695943008F03FC00F
:101140006A37E8F58770A92FB0E0262F30E04423F6
:10115000A1F04AE74A9FF0014B9FF00D1124E20FE6
:10116000F31FEB58F74F41E050E001C0440F8A9560
:10117000EAF78081842B808314C04AE74A9FF001FC
:101180004B9FF00D1124E20FF31FEB58F74F41E096
:1011900050E001C0440F8A95EAF7409580814823CA
:1011A00040838AE78A9FF0018B9FF00D1124E20FA4
:1011B000F31FEB58F74F4081892F0C9421080895B5
:1011C000FF920F931F93CF93DF9305E718E0F12C65
:1011D000C0E0D0E040E06C2F8F2D0E942108F80184
:1011E000EC0FFD1F10822196CA37D10599F7F394B1
:1011F00006581F4F84E0F812EBCFDF91CF911F917B
:101200000F91FF9008950E94360980E00E945209D4
:101210000E941C0882EE0E9448090E941C088FEA66
:101220000E94480981E00E9452090E941C0882EE37
:101230000E9448090E941C088FEA0E9448090E94E7
:10124000E00810925E0A10925D0A8EE0EFE5FAE087
:10125000DF011D928A95E9F784E998E09093680A86
:101260008093670A82E08093620A0895549A559A9F
:101270005D9A579A5F9A569A08955E9A9FEF9DB924
:101280008EB95D980000000000005D9A5E98089598
:101290005E989FEF9DB98EB95D9800000000000038
:1012A0005D9A08952BB130E1839FC00111242F7EF8
:1012B000282B2BB908955E981DB81EB85F980000C2
:1012C000000000008CB15F9A0895A29FB001B39F07
:1012D000C001A39F700D811D1124911DB29F700D3F
:1012E000811D1124911D0895CF93DF93CDB7DEB7F3
:1012F000AE01475F5F4F6F8178858D819E810E942F
:10130000C609DF91CF9108958F929F92AF92BF92BD
:10131000CF92DF92EF92FF920F931F93CF93DF93C1
:101320005B014A017901D90113962C9121FF1DC05F
:10133000C0E0D0E0C815D905D9F08C016C01CA0C09
:10134000DB1CC8010C151D0571F00F5F1F4FD70185
:101350001896ED91FC911997B701DC018C910995D4
:10136000892B79F305C02196E5CF80E090E001C09C
:10137000CE01DF91CF911F910F91FF90EF90DF9001
:10138000CF90BF90AF909F908F9008952F923F92F3
:101390004F925F926F927F928F929F92AF92BF9285
:1013A000CF92DF92EF92FF920F931F93CF93DF9331
:1013B000CDB7DEB72C970FB6F894DEBF0FBECDBF0A
:1013C0007C016B018A01FC0117821682838181FFF7
:1013D000BDC1CE0101964C01F7019381F60193FD49
:1013E000859193FF81916F01882309F4ABC1853208
:1013F00039F493FD859193FF81916F01853229F432
:10140000B70190E00E94D70BE7CF512C312C20E0A0
:101410002032A0F48B3269F030F4803259F08332FC
:1014200069F420612CC08D3239F0803339F42160A9
:1014300026C02260246023C0286021C027FD27C069
:1014400030ED380F3A3078F426FF06C0FAE05F9EA0
:10145000300D1124532E13C08AE0389E300D112414
:10146000332E20620CC08E3221F426FD6BC1206425
:1014700006C08C3611F4206802C0883641F4F601AB
:1014800093FD859193FF81916F018111C1CF982FB9
:101490009F7D9554933028F40C5F1F4FFFE3F98331
:1014A0000DC0833631F0833771F0833509F05BC0AE
:1014B00022C0F801808189830E5F1F4F442443942A
:1014C000512C540115C03801F2E06F0E711CF80167
:1014D000A080B18026FF03C0652D70E002C06FEFD1
:1014E0007FEFC5012C870E94CC0B2C0183012C853A
:1014F0002F77222E17C03801F2E06F0E711CF80111
:10150000A080B18026FF03C0652D70E002C06FEFA0
:101510007FEFC5012C870E94C10B2C012C85206810
:10152000222E830123FC1BC0832D90E04816590610
:10153000B0F4B70180E290E00E94D70B3A94F4CF68
:10154000F50127FC859127FE81915F01B70190E0AD
:101550000E94D70B31103A94F1E04F1A5108411410
:10156000510471F7E5C0843611F0893639F5F80178
:1015700027FF07C060817181828193810C5F1F4FBB
:1015800008C060817181072E000C880B990B0E5FDB
:101590001F4F2F76722E97FF09C0909580957095FA
:1015A00061957F4F8F4F9F4F2068722E2AE030E069
:1015B000A4010E940F0CA82EA81844C0853729F456
:1015C0002F7EB22E2AE030E025C0F22FF97FBF2E09
:1015D0008F36C1F018F4883579F0B4C0803719F02F
:1015E000883721F0AFC02F2F2061B22EB4FE0DC07E
:1015F0008B2D8460B82E09C024FF0AC09F2F9660EF
:10160000B92E06C028E030E005C020E130E002C07D
:1016100020E132E0F801B7FE07C06081718182816C
:1016200093810C5F1F4F06C06081718180E090E064
:101630000E5F1F4FA4010E940F0CA82EA818FB2DAF
:10164000FF777F2E76FE0BC0372D3E7FA51450F41A
:1016500074FE0AC072FC08C0372D3E7E05C0BA2C4D
:10166000372D03C0BA2C01C0B52C34FF0DC0FE01CC
:10167000EA0DF11D8081803311F4397E09C032FFFB
:1016800006C0B394B39404C0832F867809F0B39452
:1016900033FD13C030FF06C05A2CB31418F4530C9A
:1016A0005B18B32CB31468F4B70180E290E03C8778
:1016B0000E94D70BB3943C85F5CFB31410F43B18BC
:1016C00001C0312C34FF12C0B70180E390E03C87A9
:1016D0000E94D70B3C8532FF17C031FD03C088E75D
:1016E00090E002C088E590E0B7010CC0832F8678B7
:1016F00059F031FF02C08BE201C080E237FD8DE27C
:10170000B70190E00E94D70BA51438F4B70180E32D
:1017100090E00E94D70B5A94F7CFAA94F401EA0DF7
:10172000F11D8081B70190E00E94D70BA110F5CF89
:10173000332009F451CEB70180E290E00E94D70B2C
:101740003A94F6CFF7018681978102C08FEF9FEF21
:101750002C960FB6F894DEBF0FBECDBFDF91CF91B0
:101760001F910F91FF90EF90DF90CF90BF90AF90BF
:101770009F908F907F906F905F904F903F902F90B1
:101780000895FC010590615070400110D8F78095D4
:1017900090958E0F9F1F0895FC016150704001903D
:1017A0000110D8F7809590958E0F9F1F08950F9385
:1017B0001F93CF93DF93FB01238121FD03C08FEFA4
:1017C0009FEF28C022FF16C04681578124813581B2
:1017D0004217530744F4A081B1819D012F5F3F4F11
:1017E000318320838C93268137812F5F3F4F37834E
:1017F000268310C0EB01092F182F0084F185E02DFE
:101800000995892BE1F68E819F8101969F838E83B6
:10181000812F902FDF91CF911F910F910895FA01A1
:10182000AA27283051F1203181F1E8946F936E7F1F
:101830006E5F7F4F8F4F9F4FAF4FB1E03ED0B4E010
:101840003CD0670F781F891F9A1FA11D680F791F51
:101850008A1F911DA11D6A0F711D811D911DA11D62
:1018600020D009F468943F912AE0269F1124301972
:10187000305D3193DEF6CF010895462F4770405D0D
:101880004193B3E00FD0C9F7F6CF462F4F70405DBC
:101890004A3318F0495D31FD4052419302D0A9F717
:1018A000EACFB4E0A6959795879577956795BA9511
:1018B000C9F700976105710508959B01AC010A2ED7
:1018C00006945795479537952795BA95C9F7620FAE
:0E18D000731F841F951FA01D0895F894FFCF6D
:1018DE00015F0A506C6561736520707265737320C9
:1018EE0074686520726F7461727920627574746F9A
:1018FE006E20746F20737461727420746865207327
:10190E00746F7077617463680073746F707761744D
:10191E006368200A25642C2564207365636F6E64EA
:10192E000A00000000000000003E4551453E003E0A
:10193E006B6F6B3E001C3E7C3E1C00183C7E3C18C0
:10194E000030367F363000185C7E5C1800000000D8
:10195E000000000000000000000000000000000079
:10196E00000000000030484A360E0006297929068C
:10197E0000000000000000607E0A353F002A1C3681
:10198E001C2A00007F3E1C0800081C3E7F0000142D
:10199E00367F361400005F005F000006097F017F6E
:1019AE0000224D5559220060606060000014B6FFA1
:1019BE00B6140004067F06040010307F30100008B5
:1019CE00083E1C0800081C3E0808007840404040B5
:1019DE0000083E083E0800303C3F3C3000030F3FFD
:1019EE000F030000000000000000065F0600000765
:1019FE000300070300247E247E2400242B6A120099
:101A0E000063130864630036495620500000070334
:101A1E00000000003E4100000000413E00000008B2
:101A2E003E1C3E080008083E08080000E06000006A
:101A3E000008080808080000606000000020100878
:101A4E000402003E5149453E0000427F40000062C4
:101A5E0051494946002249494936001814127F104F
:101A6E00002F49494931003C4A494930000171096A
:101A7E00050300364949493600064949291E00002A
:101A8E006C6C00000000EC6C000000081422410099
:101A9E0000242424242400004122140800020159A9
:101AAE000906003E415D551E007E1111117E007F1C
:101ABE0049494936003E41414122007F4141413E64
:101ACE00007F49494941007F09090901003E41490A
:101ADE00497A007F0808087F0000417F41000030EE
:101AEE004040403F007F08142241007F404040406C
:101AFE00007F0204027F007F0204087F003E414106
:101B0E00413E007F09090906003E4151215E007FDA
:101B1E00090919660026494949320001017F010170
:101B2E00003F4040403F001F2040201F003F403CF0
:101B3E00403F006314081463000708700807007123
:101B4E004945430000007F41410000020408102077
:101B5E00000041417F000004020102048080808069
:101B6E008080000003070000002054545478007F4A
:101B7E004444443800384444442800384444447FA4
:101B8E0000385454540800087E0909000018A4A413
:101B9E00A47C007F040478000000007D400000401B
:101BAE0080847D00007F102844000000007F4000EC
:101BBE00007C04180478007C040478000038444447
:101BCE00443800FC444444380038444444FC004447
:101BDE007844040800085454542000043E44240061
:101BEE00003C40207C00001C2040201C003C60304B
:101BFE00603C006C10106C00009CA0603C00006407
:101C0E0054544C0000083E41410000000077000093
:101C1E00000041413E08000201020100003C262363
:101C2E00263C001EA1E12112003D40207D0000381F
:101C3E005454550900205555557800205554557863
:101C4E00002055555478002057555778001CA2E2B5
:101C5E00221400385555550800385554550800388B
:101C6E00555554080000017C41000000017D4100E3
:101C7E000000017C400000702924297000782F2577
:101C8E002F78007C545455450034547C5458007EB3
:101C9E00097F494900384545390000384544390027
:101CAE00003945443800003C41217D00003D412073
:101CBE007C00009CA1603D00003D42423D00003C86
:101CCE0041403D0080706858380400483E494962E2
:101CDE00007E615D433F0022140814220040887E7E
:101CEE0009020020545555780000007D410000384F
:101CFE0044453900003C40217D00007A090A7100FC
:101D0E00007A1122790000085555555E004E51514A
:101D1E004E000030484D40203E415D4B553E040480
:101D2E000404041C0017084C6A50001708342A7863
:101D3E000000307D30000008140008140014080064
:101D4E001408441144114411AA55AA55AA55BBEEC4
:101D5E00BBEEBBEE000000FF0000080808FF00000D
:101D6E0000702825297000702925297000702925FA
:101D7E0028703E415D55413E0AFB00FF000000FF0A
:101D8E0000FF00000AFA02FE00000A0B080F000016
:101D9E0000182466240000292A7C2A29080808F83D
:101DAE0000000000000F08080808080F08080808BF
:101DBE0008F80808000000FF0808080808080808C6
:101DCE00080808FF080800205655567900702A2585
:101DDE002A71000F080B0A0A00FE02FA0A0A0A0B01
:101DEE00080B0A0A0AFA02FA0A0A00FF00FB0A0A9C
:101DFE000A0A0A0A0A0A0AFB00FB0A0A005D2222E4
:101E0E00225D00225559300000087F49413E007C7A
:101E1E0055555544007C55545544007C55555444F5
:101E2E000000000700000000447D45000000457DD5
:101E3E0045000000457C45000808080F0000000022
:101E4E0000F80808FFFFFFFFFFFFF0F0F0F0F0F0E2
:101E5E000000007700000000457D44000F0F0F0FBB
:101E6E000F0F003C42433D0000FE4A4A3400003C46
:101E7E0043433D00003D43423C000032494A31009D
:101E8E00003A4546390000FC20201C0000FEAA281E
:101E9E00100000FFA5241800003C40413D00003C0E
:101EAE0041413D00003D41403C00009CA0613D0091
:101EBE00000408710904000002020200000007037A
:101ECE0000000000080808000000242E2400002452
:101EDE002424242405170A342A780006097F017F5A
:101EEE0000224D5559220008082A0808000008183B
:101EFE00180000060909060000000800080000008E
:101F0E000800000000020F00000000090F0500008D
:101F1E0000090D0A0000003C3C3C3C0000000000A3
:021F2E000000B1
:00000001FF
