:100000000C9490000C949A000C949A000C949A0012
:100010000C949A000C949A000C949A000C949A00F8
:100020000C949A000C949A000C949A000C949A00E8
:100030000C949A000C949A000C949A000C949A00D8
:100040000C949A000C949A000C949A000C949A00C8
:100050000C949A000C949A000C949A000C949A00B8
:100060000C949A000C949A000C949A000C949A00A8
:100070000C949A000C949A000C949A000C949A0098
:100080000C949A000C949A000C949A000C949A0088
:100090000C949A000C949A000C949A000C949A0078
:1000A0000C949A000C949A000C949A000C949A0068
:1000B0000C949A000C949A000C949A000C949A0058
:1000C0000C949A000C949A000C949A000C949A0048
:1000D0000C949A000C949A000C949A000C949A0038
:1000E0000C949A000C949A000C949A000C949A0028
:1000F0000C949A000C949A000C949A000C949A0018
:100100000C949A000C949A000C949A000C949A0007
:100110000C949A000C949A000C949A000C949A00F7
:1001200011241FBECFEFD1E4DEBFCDBF0E947E0100
:100130000C9410030C940000CF93DF93CDB7DEB77F
:100140002E970FB6F894DEBF0FBECDBF80E390E0D0
:1001500020E330E0F90120812064FC01208380E06D
:1001600090E0AAE7B4E489839A83AB83BC8320E060
:1001700030E04AE755E469817A818B819C810E9455
:100180007B02DC01CB018D839E83AF83B88720E0A7
:1001900030E040E85FE36D817E818F8198850E9429
:1001A000F50188232CF481E090E09A8789873FC08D
:1001B00020E03FEF4FE757E46D817E818F81988586
:1001C0000E94760218164CF520E030E040E251E43F
:1001D00069817A818B819C810E947B02DC01CB0149
:1001E000BC01CD010E94FA01DC01CB019A8789870D
:1001F0000FC080E991E09C878B878B859C85019758
:10020000F1F79C878B8789859A8501979A878987DB
:1002100089859A85892B69F714C06D817E818F81CC
:1002200098850E94FA01DC01CB019A87898789852C
:100230009A859E878D878D859E850197F1F79E878C
:100240008D8781E390E021E330E0F901308120E403
:100250002327FC01208383CFCF93DF93CDB7DEB775
:100260002C970FB6F894DEBF0FBECDBF98878F8353
:100270008F8198859C0140E050E080E89EE3DC019E
:100280000E94B901DC01CB0120E536E440E050E0FA
:10029000BC01CD010E949A01DA01C90189839A83C8
:1002A000AB83BC831AC088EE93E09E838D8306C027
:1002B00000008D819E8101979E838D838D819E811B
:1002C000892BB1F789819A81AB81BC810197A10902
:1002D000B10989839A83AB83BC8389819A81AB817D
:1002E000BC81892B8A2B8B2BF1F62C960FB6F894B8
:1002F000DEBF0FBECDBFDF91CF910895CF93DF93C7
:10030000CDB7DEB783E390E023E330E0F90120814D
:100310002260FC01208380E197E20E942C0184E3AB
:1003200090E024E330E0F901308122E02327FC0152
:100330002083F1CF052E97FB1EF400940E94B1019B
:1003400057FD07D00E94C40107FC03D04EF40C9463
:10035000B10150954095309521953F4F4F4F5F4FDC
:10036000089590958095709561957F4F8F4F9F4F21
:1003700008950E94E601A59F900DB49F900DA49F43
:10038000800D911D11240895A1E21A2EAA1BBB1BFA
:10039000FD010DC0AA1FBB1FEE1FFF1FA217B30751
:1003A000E407F50720F0A21BB30BE40BF50B661F67
:1003B000771F881F991F1A9469F76095709580952B
:1003C00090959B01AC01BD01CF010895A29FB001A2
:1003D000B39FC001A39F700D811D1124911DB29F79
:1003E000700D811D1124911D08950E94290208F4A9
:1003F00081E008950E94550288F09F5798F0B92F28
:100400009927B751B0F0E1F0660F771F881F991F49
:100410001AF0BA95C9F714C0B13091F00E946F027A
:10042000B1E008950C946F02672F782F8827B85F8A
:1004300039F0B93FCCF3869577956795B395D9F7A1
:100440003EF490958095709561957F4F8F4F9F4FAB
:100450000895990F0008550FAA0BE0E8FEEF161655
:100460001706E807F907C0F012161306E407F507A8
:1004700098F0621B730B840B950B39F40A2661F01C
:10048000232B242B252B21F408950A2609F4A140BF
:10049000A6958FEF811D811D089557FD9058440F3B
:1004A000551F59F05F3F71F04795880F97FB991FD3
:1004B00061F09F3F79F08795089512161306140690
:1004C000551FF2CF4695F1DF08C01616170618061D
:1004D000991FF1CF86957105610508940895E894F8
:1004E000BB2766277727CB0197F908950E94290239
:1004F00008F48FEF08950E948E020C94FF020E9470
:10050000F10238F00E94F80220F0952311F00C94CB
:10051000E8020C94EE0211240C9470020E944D0229
:1005200070F3959FC1F3950F50E0551F629FF00146
:10053000729FBB27F00DB11D639FAA27F00DB11D5F
:10054000AA1F649F6627B00DA11D661F829F2227E8
:10055000B00DA11D621F739FB00DA11D621F839F6F
:10056000A00D611D221F749F3327A00D611D231F45
:10057000849F600D211D822F762F6A2F11249F5793
:1005800050409AF0F1F088234AF0EE0FFF1FBB1F96
:10059000661F771F881F91505040A9F79E3F510555
:1005A00080F00C94E8020C9470025F3FE4F3983EF4
:1005B000D4F3869577956795B795F795E7959F5FFF
:1005C000C1F7FE2B880F911D9695879597F9089591
:1005D00097F99F6780E870E060E008959FEF80ECF6
:1005E000089500240A941616170618060906089599
:1005F00000240A9412161306140605060895092EFF
:100600000394000C11F4882352F0BB0F40F4BF2B6D
:1006100011F460FF04C06F5F7F4F8F4F9F4F0895AD
:04062000F894FFCF7C
:00000001FF
