:020000021000EC
:10E000000C9490F00C94AFF00C94AFF00C94AFF033
:10E010000C94AFF00C94AFF00C94AFF00C94AFF004
:10E020000C94AFF00C94AFF00C94AFF00C94AFF0F4
:10E030000C94AFF00C94AFF00C94AFF00C94AFF0E4
:10E040000C94AFF00C94AFF00C94AFF00C94AFF0D4
:10E050000C94AFF00C94AFF00C94AFF00C94AFF0C4
:10E060000C94AFF00C94AFF00C94AFF00C94AFF0B4
:10E070000C94AFF00C94AFF00C94AFF00C94AFF0A4
:10E080000C94AFF00C94AFF00C94AFF00C94AFF094
:10E090000C94AFF00C94AFF00C94AFF00C94AFF084
:10E0A0000C94AFF00C94AFF00C94AFF00C94AFF074
:10E0B0000C94AFF00C94AFF00C94AFF00C94AFF064
:10E0C0000C94AFF00C94AFF00C94AFF00C94AFF054
:10E0D0000C94AFF00C94AFF00C94AFF00C94AFF044
:10E0E0000C94AFF00C94AFF00C94AFF00C94AFF034
:10E0F0000C94AFF00C94AFF00C94AFF00C94AFF024
:10E100000C94AFF00C94AFF00C94AFF00C94AFF013
:10E110000C94AFF00C94AFF00C94AFF00C94AFF003
:10E1200011241FBECFEFD1E4DEBFCDBF12E0A0E0CF
:10E13000B2E0EEEEF4EE01E00BBF02C007900D92EC
:10E14000A230B107D9F722E0A2E0B2E001C01D92EF
:10E15000A131B207E1F70E94E8F10C9475F20C943A
:10E1600000F053E0B52EAA24A39461E1962E75E049
:10E17000872E863509F47FC098F4853409F482C06F
:10E1800030F4813439F1823409F4A0C0F2CF833500
:10E1900009F45BC0843509F444C0803551F712C0DE
:10E1A0008536D9F130F4813689F0823609F470C0B1
:10E1B000E0CF833709F43BC0843709F442C0873687
:10E1C000C1F6ECC08DE00E9447F2FCCF89E50E94C9
:10E1D00047F2FCCF0E9440F20E9440F28DE00E9484
:10E1E00047F2F8CF07B600FCFDCFF999FECFFC014E
:10E1F000A0935B00B0925700E89507B600FCFDCFF6
:10E200009F5FAF4FBF4F811520EE920721E0A2071D
:10E21000B10541F78DE00E9447F280E090E0DC011B
:10E22000E1CF0E9440F28DE00E9447F2FACF8EE1EA
:10E230000E9447F287EA0E9447F281E00E9447F27B
:10E24000F6CF80E30E9447F2FCCF81E40E9447F2C0
:10E2500086E50E9447F282E50E9447F282E40E942E
:10E2600047F28FE40E9447F28FE40E9447F284E570
:10E270000E9447F2EACF80E30E9447F281E30E94C6
:10E2800047F2F9CF8DE00E9447F20C940000FACFDC
:10E2900089E50E9447F281E00E9447F280E00E94F7
:10E2A00047F2F6CFF601E0925B0080925700E895C6
:10E2B00007B600FCFDCF8DE00E9447F29092570018
:10E2C000E8953FBEF694E794D794C7940E9440F235
:10E2D000C82F0E9440F2082F0E9440F2863409F0B5
:10E2E00037C010E01C2BCC0CDD1CEE1CFF1C3FB615
:10E2F000F894013081E0180748F5F601E0925B00E0
:10E30000B0925700E89507B600FCFDCF2601370113
:10E31000C2018C199D098017910708F0C3CF0E9494
:10E3200040F2C82FD0E0DC2FCC270E9440F2C82B4F
:10E330000E01F20160925B00A0925700E895112453
:10E3400022E0420E511C611C711CE2CF8FE3B4CF5E
:10E35000853409F4BBCF8FE30E9447F2B7CF4C015D
:10E360005D012FEF821A920AA20AB20AABBFFC012A
:10E3700087910E9447F201501109D501C40179F734
:10E380008FEFC81AD80AE80AF80A2197CC0EDD1ECA
:10E39000E11CF11CF694E794D794C7940E9440F2D4
:10E3A000182F0E9440F2C82F0E9440F2863451F488
:10E3B000D0E0D12BCC0CDD1CEE1CFF1CD701C6011C
:10E3C0008E01CDCF853451F38FE30E9447F2E6CF23
:10E3D00060E071EE80E090E00E94FDF187B78F77FA
:10E3E00087BF27982F9A1F9905C00E9440F20E946C
:10E3F000B1F0FBCF80E090E008950F931F938B0165
:10E400009C0180911002811138C081E0809310023C
:10E41000C901B801775F824C9F4F42E0660F771FBA
:10E42000881F991F4A95D1F7A9019801E3E0220FAF
:10E43000331F441F551FEA95D1F70E9453F2215014
:10E4400031093093CD002093CC0022E02093C80006
:10E4500086E08093CA0088E18093C9008EE0E2E004
:10E46000F2E0DF011D928A95E9F78EE492EF909336
:10E470000B0280930A02209305021F910F910895C9
:10E480008091C80087FFFCCF8091CE0008959091C5
:10E49000C80095FFFCCF8093CE0008950E9447F2FC
:10E4A00080E090E00895A1E21A2EAA1BBB1BFD019B
:10E4B0000DC0AA1FBB1FEE1FFF1FA217B307E40763
:10E4C000F50720F0A21BB30BE40BF50B661F771FBB
:10E4D000881F991F1A9469F760957095809590959B
:0EE4E0009B01AC01BD01CF010895F894FFCF60
:02E4EE00020228
:040000031000E00009
:00000001FF
