:100000000C9490000C94AF000C94AF000C94AF00D3
:100010000C94AF000C94AF000C94AF000C94AF00A4
:100020000C94AF000C94AF000C94AF000C94AF0094
:100030000C94AF000C94AF000C94AF000C94AF0084
:100040000C94AF000C94AF000C94AF000C94AF0074
:100050000C94AF000C94AF000C94AF000C94AF0064
:100060000C94AF000C94AF000C94AF000C94AF0054
:100070000C94AF000C94AF000C94AF000C94AF0044
:100080000C94AF000C94AF000C94AF000C94AF0034
:100090000C94AF000C94AF000C94AF000C94AF0024
:1000A0000C94AF000C94AF000C94AF000C94AF0014
:1000B0000C94AF000C94AF000C94AF000C94AF0004
:1000C0000C94AF000C94AF000C94AF000C94AF00F4
:1000D0000C94AF000C94AF000C94AF000C94AF00E4
:1000E0000C94AF000C94AF000C94AF000C94AF00D4
:1000F0000C94AF000C94AF000C94AF000C94AF00C4
:100100000C94AF000C94AF000C94AF000C94AF00B3
:100110000C94AF000C94AF000C94AF000C94AF00A3
:1001200011241FBECFEFD1E4DEBFCDBF18E0A0E0A9
:10013000B2E0E8E5F3E100E00BBF02C007900D92EA
:10014000AE38B107D9F72AE0AEE8B8E001C01D9299
:10015000A539B207E1F70E94B1000C94AA090C94EA
:100160000000CF93DF93CDB7DEB7E8970FB6F894D2
:10017000DEBF0FBECDBF60E071EE80E090E00E9478
:100180000C030E94490480910002909101029C019D
:100190004CE150E061E070E084E092E00E94C10632
:1001A00080910202909103029C0143E150E061E0E2
:1001B00070E081E292E00E94C1060E94AB040E94BE
:1001C000EE040E9431050E94540585E392E00E94EE
:1001D000CC0280E090E4ACE9B5E489839A83AB83F8
:1001E000BC8320E030E04AE755E469817A818B8165
:1001F0009C810E941C06DC01CB018D839E83AF8312
:10020000B88720E030E040E85FE36D817E818F8138
:1002100098850E94960588232CF481E090E09A87C7
:1002200089873FC020E03FEF4FE757E46D817E8133
:100230008F8198850E94170618164CF520E030E053
:1002400040E251E469817A818B819C810E941C0685
:10025000DC01CB01BC01CD010E949B05DC01CB017F
:100260009A8789870FC080E991E09C878B878B856F
:100270009C850197F1F79C878B8789859A850197E3
:100280009A87898789859A85892B69F714C06D813A
:100290007E818F8198850E949B05DC01CB019A8726
:1002A000898789859A859E878D878D859E8501970B
:1002B000F1F79E878D870E9443050E94110588E40F
:1002C00092E00E94CC0280E090E0AAEFB3E48F8736
:1002D000988BA98BBA8B20E030E04AE755E46F8514
:1002E000788989899A890E941C06DC01CB018B8B55
:1002F0009C8BAD8BBE8B20E030E040E85FE36B89E8
:100300007C898D899E890E94960588232CF481E042
:1003100090E0988F8F8B3FC020E03FEF4FE757E48E
:100320006B897C898D899E890E94170618164CF569
:1003300020E030E040E251E46F85788989899A892C
:100340000E941C06DC01CB01BC01CD010E949B0573
:10035000DC01CB01988F8F8B0FC080E991E09A8FE1
:10036000898F898D9A8D0197F1F79A8F898F8F895F
:10037000988D0197988F8F8B8F89988D892B69F72E
:1003800014C06B897C898D899E890E949B05DC0144
:10039000CB01988F8F8B8F89988D9C8F8B8F8B8DB6
:1003A0009C8D0197F1F79C8F8B8F0E9400050E9416
:1003B000CE048CE592E00E94CC0280E090E0AAEFAF
:1003C000B4E48D8F9E8FAF8FB8A320E030E04AE772
:1003D00055E46D8D7E8D8F8D98A10E941C06DC01E9
:1003E000CB0189A39AA3ABA3BCA320E030E040E8F3
:1003F0005FE369A17AA18BA19CA10E949605882345
:100400002CF481E090E09EA38DA33FC020E03FEF5D
:100410004FE757E469A17AA18BA19CA10E9417061E
:1004200018164CF520E030E040E251E46D8D7E8DF1
:100430008F8D98A10E941C06DC01CB01BC01CD016F
:100440000E949B05DC01CB019EA38DA30FC080E918
:1004500091E098A78FA38FA198A50197F1F798A78E
:100460008FA38DA19EA101979EA38DA38DA19EA177
:10047000892B69F714C069A17AA18BA19CA10E9464
:100480009B05DC01CB019EA38DA38DA19EA19AA704
:1004900089A789A59AA50197F1F79AA789A70E942C
:1004A00000058DE692E00E94CC0280E090E0A6E993
:1004B000B3E48BA79CA7ADA7BEA720E030E04AE736
:1004C00055E46BA57CA58DA59EA50E941C06DC01AC
:1004D000CB018FA798ABA9ABBAAB20E030E040E8E6
:1004E0005FE36FA578A989A99AA90E949605882338
:1004F0002CF481E090E09CAB8BAB3FC020E03FEF61
:100500004FE757E46FA578A989A99AA90E94170611
:1005100018164CF520E030E040E251E46BA57CA5D4
:100520008DA59EA50E941C06DC01CB01BC01CD015E
:100530000E949B05DC01CB019CAB8BAB0FC080E91B
:1005400091E09EAB8DAB8DA99EA90197F1F79EAB73
:100550008DAB8BA99CA901979CAB8BAB8BA99CA95C
:10056000892B69F714C06FA578A989A99AA90E9457
:100570009B05DC01CB019CAB8BAB8BA99CA998AFF5
:100580008FAB8FA998AD0197F1F798AF8FAB0E9411
:1005900021050E94DE0417CECF93DF9300D0CDB7A4
:1005A000DEB79A83898380910002909101022A81AB
:1005B0002F9329812F9329E832E0232F2F9329E8C5
:1005C00032E02F93292F2F938F930E94B1060F9023
:1005D0000F900F900F900F900F90809102029091CA
:1005E00003022A812F9329812F9329E832E0232FB8
:1005F0002F9329E832E02F93292F2F938F930E9476
:10060000B1060F900F900F900F900F900F900F90DA
:100610000F90DF91CF9108950F931F938B019C0151
:1006200080919C08811138C081E080939C08C901A9
:10063000B801775F824C9F4F42E0660F771F881F9B
:10064000991F4A95D1F7A9019801E3E0220F331FC2
:10065000441F551FEA95D1F70E94740521503109B6
:100660003093CD002093CC0022E02093C80086E098
:100670008093CA0088E18093C9008EE0EEE8F8E03C
:10068000DF011D928A95E9F78DE593E09093970835
:1006900080939608209391081F910F91089580915F
:1006A000C80087FFFCCF8091CE0008959091C800CC
:1006B00095FFFCCF8093CE0008950E94560380E002
:1006C00090E008950E94A10487FDFCCF08951F9338
:1006D000CF93DF93D82FC62F142F6A3710F58430AD
:1006E00000F56D3340F081E00E9498040E9462039F
:1006F00083EC8C0F06C080E00E9498040E94620385
:100700008C2F0E948E040E9462038D2F886B0E94A2
:100710008E040E946203812FDF91CF911F910C9470
:100720008304DF91CF911F9108958093860A60938F
:10073000850A08950F931F93CF93DF939091850AB5
:100740008A3031F41092860A9F5F9093850A2DC0FB
:100750002091860A243129F41092860A9F5F909393
:10076000850A9091850A943000F596E0899F800172
:100770001124C0E0D0E003571D4FF801EC0FFD1F1E
:100780008091860A682F660F680F660F6C0F408194
:100790008091850A0E9467032196C630D10569F7CA
:1007A0008091860A8F5F8093860ADF91CF911F9197
:1007B0000F9108950E949A0380E090E00895982F89
:1007C000969596959695943008F03FC06A37E8F56F
:1007D0008770A92FB0E0262F30E04423A1F04AE72C
:1007E0004A9FF0014B9FF00D1124E20FF31FE356D7
:1007F000F74F41E050E001C0440F8A95EAF780814D
:10080000842B808314C04AE74A9FF0014B9FF00D70
:100810001124E20FF31FE356F74F41E050E001C00F
:10082000440F8A95EAF740958081482340838AE700
:100830008A9FF0018B9FF00D1124E20FF31FE35606
:10084000F74F4081892F0C9467030895FF920F930F
:100850001F93CF93DF930DE918E0F12CC0E0D0E0B7
:1008600040E06C2F8F2D0E946703F801EC0FFD1FF5
:1008700010822196CA37D10599F7F39406581F4F75
:1008800084E0F812EBCFDF91CF911F910F91FF9091
:1008900008950E947C0480E00E9498040E946203F4
:1008A00082EE0E948E040E9462038FEA0E948E04F0
:1008B00081E00E9498040E94620382EE0E948E04EE
:1008C0000E9462038FEA0E948E040E942604109206
:1008D000860A1092850A8EE0E7E8FAE0DF011D92B1
:1008E0008A95E9F78AED93E09093900A80938F0AB6
:1008F00082E080938A0A0895549A559A5D9A579A8D
:100900005F9A569A08955E9A9FEF9DB98EB95D9849
:100910000000000000005D9A5E9808955E989FEFC9
:100920009DB98EB95D980000000000005D9A0895A1
:100930002BB130E1839FC00111242F7E282B2BB9CE
:1009400008955E981DB81EB85F9800000000000072
:100950008CB15F9A0895CF93DF93CDB7DEB783E371
:1009600090E023E330E0F90120812260FC01208344
:100970000E94DE04DF91CF910895CF93DF93CDB72E
:10098000DEB784E390E024E330E0F901308122E037
:100990002327FC012083DF91CF910895CF93DF932C
:1009A000CDB7DEB784E390E024E330E0F9012081A5
:1009B0002D7FFC012083DF91CF910895CF93DF93AA
:1009C000CDB7DEB784E390E024E330E0F901208185
:1009D0002260FC012083DF91CF910895CF93DF93B4
:1009E000CDB7DEB780E390E020E330E0F90120816D
:1009F0002068FC0120830E942105DF91CF9108959A
:100A0000CF93DF93CDB7DEB781E390E021E330E011
:100A1000F901308120E82327FC012083DF91CF9169
:100A20000895CF93DF93CDB7DEB781E390E021E364
:100A300030E0F90120812F77FC012083DF91CF91F5
:100A40000895CF93DF93CDB7DEB781E390E021E344
:100A500030E0F90120812068FC012083DF91CF91F3
:100A60000895CF93DF93CDB7DEB780E390E020E326
:100A700030E0F90120812064FC0120830E9464059C
:100A8000DF91CF910895CF93DF93CDB7DEB781E3A8
:100A900090E021E330E0F901308120E42327FC01DC
:100AA0002083DF91CF910895CF93DF93CDB7DEB749
:100AB00081E390E021E330E0F90120812F7BFC010C
:100AC0002083DF91CF910895CF93DF93CDB7DEB729
:100AD00081E390E021E330E0F90120812064FC0112
:100AE0002083DF91CF910895A1E21A2EAA1BBB1B90
:100AF000FD010DC0AA1FBB1FEE1FFF1FA217B307EA
:100B0000E407F50720F0A21BB30BE40BF50B661FFF
:100B1000771F881F991F1A9469F7609570958095C3
:100B200090959B01AC01BD01CF0108950E94CA05BB
:100B300008F481E008950E94F60588F09F5798F028
:100B4000B92F9927B751B0F0E1F0660F771F881FD2
:100B5000991F1AF0BA95C9F714C0B13091F00E94EC
:100B60001006B1E008950C941006672F782F88279F
:100B7000B85F39F0B93FCCF3869577956795B39513
:100B8000D9F73EF490958095709561957F4F8F4F82
:100B90009F4F0895990F0008550FAA0BE0E8FEEF4C
:100BA00016161706E807F907C0F012161306E40731
:100BB000F50798F0621B730B840B950B39F40A262A
:100BC00061F0232B242B252B21F408950A2609F408
:100BD000A140A6958FEF811D811D089557FD905866
:100BE000440F551F59F05F3F71F04795880F97FBF1
:100BF000991F61F09F3F79F08795089512161306AB
:100C00001406551FF2CF4695F1DF08C016161706D9
:100C10001806991FF1CF869571056105089408950E
:100C2000E894BB2766277727CB0197F908950E94A0
:100C3000CA0508F48FEF08950E942F060C94A006B1
:100C40000E94920638F00E94990620F0952311F038
:100C50000C9489060C948F0611240C9411060E94A2
:100C6000EE0570F3959FC1F3950F50E0551F629FFD
:100C7000F001729FBB27F00DB11D639FAA27F00DF5
:100C8000B11DAA1F649F6627B00DA11D661F829F1C
:100C90002227B00DA11D621F739FB00DA11D621F01
:100CA000839FA00D611D221F749F3327A00D611D1E
:100CB000231F849F600D211D822F762F6A2F112400
:100CC0009F5750409AF0F1F088234AF0EE0FFF1F33
:100CD000BB1F661F771F881F91505040A9F79E3F8A
:100CE000510580F00C9489060C9411065F3FE4F3E3
:100CF000983ED4F3869577956795B795F795E795E0
:100D00009F5FC1F7FE2B880F911D9695879597F9E8
:100D1000089597F99F6780E870E060E008959FEF7D
:100D200080EC089500240A94161617061806090682
:100D3000089500240A941216130614060506089551
:100D4000092E0394000C11F4882352F0BB0F40F4D9
:100D5000BF2B11F460FF04C06F5F7F4F8F4F9F4F19
:100D60000895CF93DF93CDB7DEB7AE01475F5F4FF6
:100D70006F8178858D819E810E940307DF91CF91DD
:100D800008958F929F92AF92BF92CF92DF92EF928F
:100D9000FF920F931F93CF93DF935B014A01790179
:100DA000D90113962C9121FF1DC0C0E0D0E0C815D9
:100DB000D905D9F08C016C01CA0CDB1CC8010C15DB
:100DC0001D0571F00F5F1F4FD7011896ED91FC9133
:100DD0001997B701DC018C910995892B79F305C02E
:100DE0002196E5CF80E090E001C0CE01DF91CF9168
:100DF0001F910F91FF90EF90DF90CF90BF90AF9039
:100E00009F908F9008952F923F924F925F926F9292
:100E10007F928F929F92AF92BF92CF92DF92EF928A
:100E2000FF920F931F93CF93DF93CDB7DEB72C972D
:100E30000FB6F894DEBF0FBECDBF7C016B018A01F7
:100E4000FC0117821682838181FFBDC1CE0101960C
:100E50004C01F7019381F60193FD859193FF8191F8
:100E60006F01882309F4ABC1853239F493FD859174
:100E700093FF81916F01853229F4B70190E00E94C0
:100E80001409E7CF512C312C20E02032A0F48B3212
:100E900069F030F4803259F0833269F420612CC05B
:100EA0008D3239F0803339F4216026C0226024600D
:100EB00023C0286021C027FD27C030ED380F3A300D
:100EC00078F426FF06C0FAE05F9E300D1124532E01
:100ED00013C08AE0389E300D1124332E20620CC0DE
:100EE0008E3221F426FD6BC1206406C08C3611F4CD
:100EF000206802C0883641F4F60193FD859193FF86
:100F000081916F018111C1CF982F9F7D95549330AE
:100F100028F40C5F1F4FFFE3F9830DC0833631F0D7
:100F2000833771F0833509F05BC022C0F8018081FE
:100F300089830E5F1F4F44244394512C540115C0E4
:100F40003801F2E06F0E711CF801A080B18026FF1D
:100F500003C0652D70E002C06FEF7FEFC5012C87E5
:100F60000E9409092C0183012C852F77222E17C09E
:100F70003801F2E06F0E711CF801A080B18026FFED
:100F800003C0652D70E002C06FEF7FEFC5012C87B5
:100F90000E94FE082C012C852068222E830123FC50
:100FA0001BC0832D90E048165906B0F4B70180E2CB
:100FB00090E00E9414093A94F4CFF50127FC859142
:100FC00027FE81915F01B70190E00E941409311062
:100FD0003A94F1E04F1A51084114510471F7E5C0F9
:100FE000843611F0893639F5F80127FF07C0608192
:100FF0007181828193810C5F1F4F08C06081718174
:10100000072E000C880B990B0E5F1F4F2F76722E48
:1010100097FF09C090958095709561957F4F8F4F90
:101020009F4F2068722E2AE030E0A4010E944C09F4
:10103000A82EA81844C0853729F42F7EB22E2AE0A6
:1010400030E025C0F22FF97FBF2E8F36C1F018F4A3
:10105000883579F0B4C0803719F0883721F0AFC0F7
:101060002F2F2061B22EB4FE0DC08B2D8460B82EC0
:1010700009C024FF0AC09F2F9660B92E06C028E041
:1010800030E005C020E130E002C020E132E0F801AC
:10109000B7FE07C060817181828193810C5F1F4F11
:1010A00006C06081718180E090E00E5F1F4FA40157
:1010B0000E944C09A82EA818FB2DFF777F2E76FEE4
:1010C0000BC0372D3E7FA51450F474FE0AC072FC8D
:1010D00008C0372D3E7E05C0BA2C372D03C0BA2C70
:1010E00001C0B52C34FF0DC0FE01EA0DF11D808159
:1010F000803311F4397E09C032FF06C0B394B39433
:1011000004C0832F867809F0B39433FD13C030FFF9
:1011100006C05A2CB31418F4530C5B18B32CB31438
:1011200068F4B70180E290E03C870E941409B39410
:101130003C85F5CFB31410F43B1801C0312C34FFBB
:1011400012C0B70180E390E03C870E9414093C85FF
:1011500032FF17C031FD03C088E790E002C088E588
:1011600090E0B7010CC0832F867859F031FF02C0A0
:101170008BE201C080E237FD8DE2B70190E00E9472
:101180001409A51438F4B70180E390E00E94140913
:101190005A94F7CFAA94F401EA0DF11D8081B701AA
:1011A00090E00E941409A110F5CF332009F451CE2C
:1011B000B70180E290E00E9414093A94F6CFF7015B
:1011C0008681978102C08FEF9FEF2C960FB6F8941F
:1011D000DEBF0FBECDBFDF91CF911F910F91FF906A
:1011E000EF90DF90CF90BF90AF909F908F907F90C7
:1011F0006F905F904F903F902F900895FC01059065
:10120000615070400110D8F7809590958E0F9F1F08
:101210000895FC016150704001900110D8F780954D
:1012200090958E0F9F1F08950F931F93CF93DF9379
:10123000FB01238121FD03C08FEF9FEF28C022FF18
:1012400016C046815781248135814217530744F4E3
:10125000A081B1819D012F5F3F4F318320838C930B
:10126000268137812F5F3F4F3783268310C0EB01E4
:10127000092F182F0084F185E02D0995892BE1F6BF
:101280008E819F8101969F838E83812F902FDF9186
:10129000CF911F910F910895FA01AA27283051F19B
:1012A000203181F1E8946F936E7F6E5F7F4F8F4F97
:1012B0009F4FAF4FB1E03ED0B4E03CD0670F781FF6
:1012C000891F9A1FA11D680F791F8A1F911DA11DDB
:1012D0006A0F711D811D911DA11D20D009F4689414
:1012E0003F912AE0269F11243019305D3193DEF6BC
:1012F000CF010895462F4770405D4193B3E00FD072
:10130000C9F7F6CF462F4F70405D4A3318F0495D5C
:1013100031FD4052419302D0A9F7EACFB4E0A6953F
:101320009795879577956795BA95C9F70097610561
:10133000710508959B01AC010A2E069457954795B7
:1013400037952795BA95C9F7620F731F841F951FAC
:08135000A01D0895F894FFCFE1
:101358008E08870A53544152542C47726565746944
:101368006E672066726F6D204A6961646F6E670AE6
:101378000053544152542C48656C6C6F204A696183
:10138800646F6E67005468652073746174652069C2
:101398007320677265656E005468652073746174A4
:1013A800652069732079656C6C6F770054686520D7
:1013B800737461746520697320726564005468658C
:1013C8002073746174652069732072656420616E8E
:1013D800642079656C6C6F770025730A0000000043
:1013E800000000003E4551453E003E6B6F6B3E00DD
:1013F8001C3E7C3E1C00183C7E3C180030367F3674
:101408003000185C7E5C180000000000000000003E
:1014180000000000000000000000000000000000C4
:1014280030484A360E0006297929060000000000D7
:101438000000607E0A353F002A1C361C2A00007F07
:101448003E1C0800081C3E7F000014367F3614003E
:10145800005F005F000006097F017F00224D55599B
:10146800220060606060000014B6FFB61400040635
:101478007F06040010307F30100008083E1C08006A
:10148800081C3E080800784040404000083E083EDE
:101498000800303C3F3C3000030F3F0F03000000C2
:1014A8000000000000065F060000070300070300B5
:1014B800247E247E2400242B6A120000631308640F
:1014C8006300364956205000000703000000003E24
:1014D8004100000000413E000000083E1C3E08009C
:1014E80008083E08080000E0600000000808080836
:1014F80008000060600000002010080402003E514F
:1015080049453E0000427F4000006251494946007B
:101518002249494936001814127F10002F494949B9
:1015280031003C4A49493000017109050300364938
:1015380049493600064949291E00006C6C00000024
:1015480000EC6C000000081422410000242424242C
:1015580024000041221408000201590906003E41F6
:101568005D551E007E1111117E007F4949493600E4
:101578003E41414122007F4141413E007F49494966
:1015880041007F09090901003E4149497A007F0865
:1015980008087F0000417F410000304040403F0084
:1015A8007F08142241007F40404040007F0204022F
:1015B8007F007F0204087F003E4141413E007F09D1
:1015C800090906003E4151215E007F09091966009C
:1015D80026494949320001017F0101003F4040404E
:1015E8003F001F2040201F003F403C403F00631445
:1015F8000814630007087008070071494543000094
:10160800007F414100000204081020000041417F92
:1016180000000402010204808080808080000003B2
:10162800070000002054545478007F444444380094
:10163800384444442800384444447F0038545454BF
:101648000800087E0909000018A4A4A47C007F04EF
:101658000478000000007D4000004080847D000088
:101668007F102844000000007F4000007C0418041C
:1016780078007C0404780000384444443800FC4472
:101688004444380038444444FC0044784404080086
:10169800085454542000043E442400003C40207C5C
:1016A80000001C2040201C003C6030603C006C1096
:1016B800106C00009CA0603C00006454544C000076
:1016C800083E414100000000770000000041413E13
:1016D80008000201020100003C2623263C001EA14E
:1016E800E12112003D40207D000038545455090086
:1016F8002055555578002055545578002055555497
:1017080078002057555778001CA2E222140038555B
:101718005555080038555455080038555554080093
:1017280000017C41000000017D41000000017C4077
:101738000000702924297000782F252F78007C5408
:101748005455450034547C5458007E097F4949005B
:101758003845453900003845443900003945443892
:1017680000003C41217D00003D41207C00009CA1FF
:10177800603D00003D42423D00003C41403D00804C
:10178800706858380400483E494962007E615D43EC
:101798003F0022140814220040887E0902002054C9
:1017A8005555780000007D41000038444539000057
:1017B8003C40217D00007A090A7100007A112279E3
:1017C8000000085555555E004E51514E00003048F6
:1017D8004D40203E415D4B553E04040404041C006A
:1017E80017084C6A50001708342A780000307D30FA
:1017F80000000814000814001408001408441144D8
:10180800114411AA55AA55AA55BBEEBBEEBBEE0072
:101818000000FF0000080808FF00000070282529C4
:10182800700070292529700070292528703E415DB7
:1018380055413E0AFB00FF000000FF00FF00000AC0
:10184800FA02FE00000A0B080F00000018246624A4
:101858000000292A7C2A29080808F800000000004E
:101868000F08080808080F0808080808F8080800FA
:101878000000FF0808080808080808080808FF0802
:101888000800205655567900702A252A71000F083D
:101898000B0A0A00FE02FA0A0A0A0B080B0A0A0ACD
:1018A800FA02FA0A0A00FF00FB0A0A0A0A0A0A0AE6
:1018B8000A0AFB00FB0A0A005D2222225D0022556B
:1018C80059300000087F49413E007C555555440079
:1018D8007C55545544007C5555544400000007007D
:1018E800000000447D45000000457D45000000459E
:1018F8007C45000808080F0000000000F80808FFF1
:10190800FFFFFFFFFFF0F0F0F0F0F00000007700BD
:10191800000000457D44000F0F0F0F0F0F003C42E1
:10192800433D0000FE4A4A3400003C43433D00006A
:101938003D43423C000032494A3100003A454639AD
:101948000000FC20201C0000FEAA28100000FFA5B3
:10195800241800003C40413D00003C41413D00004E
:101968003D41403C00009CA0613D00000408710915
:101978000400000202020000000703000000000843
:101988000808000000242E24000024242424240510
:10199800170A342A780006097F017F00224D55591D
:1019A800220008082A08080000081818000006097C
:1019B80009060000000800080000000800000000F8
:1019C800020F00000000090F05000000090D0A00C1
:0E19D80000003C3C3C3C000000000000000011
:00000001FF
