:100000000C9490000C94A2000C94A2000C94A200FA
:100010000C94A2000C94A2000C94A2000C94A200D8
:100020000C94A2000C9489010C94A2000C94A200E0
:100030000C94A2000C9495040C94A2000C94A200C1
:100040000C94A2000C945F040C94A2000C94A200E7
:100050000C94A2000C94A2000C94A2000C94A20098
:100060000C94A2000C94A2000C94A2000C94A20088
:100070000C94A2000C94A2000C94A2000C94A20078
:100080000C94A2000C94A2000C94A2000C94A20068
:100090000C94A2000C94A2000C94A2000C94A20058
:1000A0000C94A2000C94A2000C94A2000C94A20048
:1000B0000C94A2000C94A2000C94A2000C94A20038
:1000C0000C94A2000C94A2000C94A2000C94A20028
:1000D0000C94A2000C94A2000C94A2000C94A20018
:1000E0000C94A2000C94A2000C94A2000C94A20008
:1000F0000C94A2000C94A2000C94A2000C94A200F8
:100100000C94A2000C94A2000C94A2000C94A200E7
:100110000C94A2000C94A2000C94A2000C94A200D7
:1001200011241FBECFEFD1E4DEBFCDBF22E0A0E09F
:10013000B2E001C01D92A331B207E1F70E94A40012
:100140000C94CB040C940000CF93DF9300D000D02C
:1001500000D0CDB7DEB70E9496020E941C030E9419
:10016000D90281E00E9412010E94710310921202D2
:10017000109211021092100210920F0288EA92E07F
:100180009A8389838EE293E09C838B8388ED90E051
:100190009E838D8389819A810E94D9018B819C8164
:1001A0000E94EB018D819E810E945F037894FFCFB6
:1001B000CF93DF93CDB7DEB780910F0290911002FD
:1001C00001969093100280930F0280910F029091FC
:1001D0001002883E934031F40E94EB02109210020C
:1001E00010920F02DF91CF910895CF93DF93CDB797
:1001F000DEB7809111029091120201969093120243
:10020000809311028091110290911202883C910515
:1002100031F40E94A8021092120210921102DF9192
:10022000CF910895CF93DF931F92CDB7DEB7898327
:1002300084E290E024E230E0F90120812F7BFC0190
:10024000208384E290E024E230E0F90120812F77DE
:10025000FC01208385E290E025E230E0F901208175
:100260002064FC01208385E290E025E230E0F90182
:1002700020812068FC0120838981882339F00E9435
:10028000E7038DEF91E00E94D5031BC088E690E064
:1002900028E630E0F90120812160FC0120838BE613
:1002A00090E02BE630E0F90120812064FC012083FE
:1002B0008BE690E02BE630E0F90120812068FC011C
:1002C00020830F90DF91CF910895CF93DF93CDB727
:1002D000DEB783E290E0FC018081882314F480E0A3
:1002E00001C081E0DF91CF910895CF93DF93CDB727
:1002F000DEB783E290E0FC018081882F90E080747B
:100300009927892B11F080E001C081E0DF91CF9126
:1003100008951F920F9200905F000F921124009099
:100320005B000F922F933F934F935F936F937F9355
:100330008F939F93AF93BF93EF93FF93CF93DF93ED
:10034000CDB7DEB70E947501882361F0809100026D
:1003500090910102892B31F080910002909101026D
:10036000FC0109950E946501882361F080910202D9
:1003700090910302892B31F0809102029091030247
:10038000FC010995DF91CF91FF91EF91BF91AF9162
:100390009F918F917F916F915F914F913F912F919D
:1003A0000F9000925B000F9000925F000F901F90E3
:1003B0001895CF93DF9300D0CDB7DEB79A838983AA
:1003C00089819A8190930102809300020F900F908F
:1003D000DF91CF910895CF93DF9300D0CDB7DEB7F3
:1003E0009A83898389819A81909303028093020280
:1003F0000F900F90DF91CF910895CF93DF9300D0AE
:100400001F92CDB7DEB7809104028B8380910502E5
:10041000882F90E08A5F9D4FFC0110820E94650149
:10042000882389F080910502882F90E020910502B1
:10043000222F30E02A5F3D4FF901208121608A5F41
:100440009D4FFC0120830E947501882389F08091D3
:100450000502882F90E020910502222F30E02A5FCC
:100460003D4FF901208122608A5F9D4FFC0120836E
:10047000809105028F5F809305028091050285308F
:1004800011F4109205028FEF89831A820DC08A81C0
:10049000882F90E08A5F9D4FFC018081998189239C
:1004A00089838A818F5F8A838A81853080F38981FD
:1004B0008093040280910402882F90E08170992734
:1004C000892B99F08B81882F90E081709927892B57
:1004D00061F48091020290910302892B31F08091A6
:1004E000020290910302FC01099580910402882F79
:1004F00090E082709927892B99F08B81882F90E06A
:1005000082709927892B61F48091000290910102F9
:10051000892B31F08091000290910102FC01099534
:100520000F900F900F90DF91CF910895CF93DF93AD
:10053000CDB7DEB783E390E023E330E0F90120811B
:100540002260FC0120830E94C902DF91CF910895AF
:10055000CF93DF93CDB7DEB784E390E024E330E0C0
:10056000F901308122E02327FC012083DF91CF9124
:100570000895CF93DF93CDB7DEB784E390E024E313
:1005800030E0F90120812D7FFC012083DF91CF91A4
:100590000895CF93DF93CDB7DEB784E390E024E3F3
:1005A00030E0F90120812260FC012083DF91CF91AE
:1005B0000895CF93DF93CDB7DEB780E390E020E3DB
:1005C00030E0F90120812068FC0120830E940C03A7
:1005D000DF91CF910895CF93DF93CDB7DEB781E35D
:1005E00090E021E330E0F901308120E82327FC018D
:1005F0002083DF91CF910895CF93DF93CDB7DEB7FE
:1006000081E390E021E330E0F90120812F77FC01C4
:100610002083DF91CF910895CF93DF93CDB7DEB7DD
:1006200081E390E021E330E0F90120812068FC01C2
:100630002083DF91CF910895CF93DF93CDB7DEB7BD
:1006400080E390E020E330E0F90120812064FC01A8
:1006500020830E944F03DF91CF910895CF93DF93C2
:10066000CDB7DEB781E390E021E330E0F9013081DE
:1006700020E42327FC012083DF91CF910895CF93BD
:10068000DF93CDB7DEB781E390E021E330E0F901FD
:1006900020812F7BFC012083DF91CF910895CF93A0
:1006A000DF93CDB7DEB781E390E021E330E0F901DD
:1006B00020812064FC012083DF91CF910895CF93A6
:1006C000DF9300D0CDB7DEB79A83898389819A8181
:1006D00090930E0280930D020F900F90DF91CF91B7
:1006E0000895CF93DF93CDB7DEB781EB90E021EB98
:1006F00030E0F9012081277FFC01208380EB90E02E
:1007000020EB30E0F90120812260FC01208380EBA6
:1007100090E020EB30E0F90120812E7FFC01208366
:1007200081EB90E021EB30E0F90120812460FC01B5
:10073000208381EB90E021EB30E0F90120812D7FD7
:10074000FC01208381EB90E021EB30E0F901208176
:100750002E7FFC01208380E790E020E730E0F90164
:1007600020812260FC01208387E390E027E330E0D2
:10077000F90120812260FC01208383EB90E029EFC6
:10078000FC012083DF91CF910895CF93DF93CDB704
:10079000DEB781EB90E021EB30E0F90120812B7F87
:1007A000FC012083DF91CF910895CF93DF9300D098
:1007B000CDB7DEB79A83898389819A8190930C02A1
:1007C00080930B020F900F90DF91CF910895CF93FC
:1007D000DF93CDB7DEB781E890E021E830E0F901A2
:1007E00020812F7EFC01208381E890E021E830E029
:1007F000F90120812860FC01208380E890E020E856
:1008000030E0F90120812D7FFC01208380E890E019
:1008100020E830E0F90120812E7FFC01208381E86F
:1008200090E021E830E0F90120812B7FFC0120835A
:1008300081E890E021E830E0F90120812260FC01AC
:10084000208381E890E021E830E0F90120812160F7
:10085000FC0120838FE690E02FE630E0F901208153
:100860002260FC01208386E390E026E330E0F9017A
:1008700020812260FC01208388E890E021EE34E0B2
:10088000FC0131832083DF91CF910895CF93DF93D3
:10089000CDB7DEB781E890E021E830E0F9012081B2
:1008A0002D7FFC01208381E890E021E830E0F90110
:1008B00020812E7FFC012083DF91CF9108951F922C
:1008C0000F9200905F000F92112400905B000F9236
:1008D0002F933F934F935F936F937F938F939F9348
:1008E000AF93BF93EF93FF93CF93DF93CDB7DEB773
:1008F00080910B0290910C02FC010995DF91CF9140
:10090000FF91EF91BF91AF919F918F917F916F91E7
:100910005F914F913F912F910F9000925B000F904C
:1009200000925F000F901F9018951F920F920090F9
:100930005F000F92112400905B000F922F933F9362
:100940004F935F936F937F938F939F93AF93BF93D7
:10095000EF93FF93CF93DF93CDB7DEB780910D0276
:1009600090910E02FC010995DF91CF91FF91EF91DB
:10097000BF91AF919F918F917F916F915F914F91B7
:100980003F912F910F9000925B000F9000925F00BB
:0A0990000F901F901895F894FFCF08
:00000001FF
