:100000000C9490000C94AF000C94AF000C94AF00D3
:100010000C94AF000C94AF000C94AF000C94AF00A4
:100020000C94AF000C94AF000C94AF000C94AF0094
:100030000C94AF000C94AF000C94AF000C94AF0084
:100040000C94AF000C949B030C94AF000C94AF0085
:100050000C94AF000C94AF000C94AF000C94AF0064
:100060000C94AF000C94AF000C94AF000C94AF0054
:100070000C94AF000C94AF000C94AF000C94AF0044
:100080000C94AF000C94AF000C94AF000C94AF0034
:100090000C94AF000C94AF000C94AF000C94AF0024
:1000A0000C94AF000C94AF000C94AF000C94AF0014
:1000B0000C94AF000C94AF000C94AF000C94AF0004
:1000C0000C94AF000C94AF000C94AF000C94AF00F4
:1000D0000C94AF000C94AF000C94AF000C94AF00E4
:1000E0000C94AF000C94AF000C94AF000C94AF00D4
:1000F0000C94AF000C94AF000C94AF000C94AF00C4
:100100000C94AF000C94AF000C94AF000C94AF00B3
:100110000C94AF000C94AF000C94AF000C94AF00A3
:1001200011241FBECFEFD1E4DEBFCDBF12E0A0E0AF
:10013000B2E0E6EEFBE000E00BBF02C007900D92DC
:10014000A830B107D9F726E1A8E0B2E001C01D92BE
:10015000AA35B207E1F70E9434020C94F1050C9421
:100160000000CF93DF93CDB7DEB72E970FB6F8948C
:10017000DEBF0FBECDBF0E940D040E941F0480E0B1
:1001800090E0AAE7B4E489839A83AB83BC8320E040
:1001900030E04AE755E469817A818B819C810E9435
:1001A0005C05DC01CB018D839E83AF83B88720E0A3
:1001B00030E040E85FE36D817E818F8198850E9409
:1001C000D60488232CF481E090E09A8789873FC089
:1001D00020E03FEF4FE757E46D817E818F81988566
:1001E0000E94570518164CF520E030E040E251E43B
:1001F00069817A818B819C810E945C05DC01CB0145
:10020000BC01CD010E94DB04DC01CB019A87898708
:100210000FC080E991E09C878B878B859C85019737
:10022000F1F79C878B8789859A8501979A878987BB
:1002300089859A85892B69F714C06D817E818F81AC
:1002400098850E94DB04DC01CB019A878987898528
:100250009A859E878D878D859E850197F1F79E876C
:100260008D878BCFCF93DF93CDB7DEB72E970FB6A9
:10027000F894DEBF0FBECDBF0E9450040E946204FE
:1002800080E090E0AAEFB4E489839A83AB83BC83D7
:1002900020E030E04AE755E469817A818B819C81D6
:1002A0000E945C05DC01CB018D839E83AF83B88700
:1002B00020E030E040E85FE36D817E818F819885AA
:1002C0000E94D60488232CF481E090E09A878987E5
:1002D0003FC020E03FEF4FE757E46D817E818F8183
:1002E00098850E94570518164CF520E030E040E252
:1002F00051E469817A818B819C810E945C05DC01DB
:10030000CB01BC01CD010E94DB04DC01CB019A874B
:1003100089870FC080E991E09C878B878B859C85BE
:100320000197F1F79C878B8789859A8501979A8732
:10033000898789859A85892B69F714C06D817E81AB
:100340008F8198850E94DB04DC01CB019A87898725
:1003500089859A859E878D878D859E850197F1F782
:100360009E878D878BCFCF93DF93CDB7DEB72E9748
:100370000FB6F894DEBF0FBECDBF0E9493040E945B
:10038000A50480E090E8ABE3B5E489839A83AB836E
:10039000BC8320E030E04AE755E469817A818B81B3
:1003A0009C810E945C05DC01CB018D839E83AF8321
:1003B000B88720E030E040E85FE36D817E818F8187
:1003C00098850E94D60488232CF481E090E09A87D7
:1003D00089873FC020E03FEF4FE757E46D817E8182
:1003E0008F8198850E94570518164CF520E030E063
:1003F00040E251E469817A818B819C810E945C0595
:10040000DC01CB01BC01CD010E94DB04DC01CB018E
:100410009A8789870FC080E991E09C878B878B85BD
:100420009C850197F1F79C878B8789859A85019731
:100430009A87898789859A85892B69F714C06D8188
:100440007E818F8198850E94DB04DC01CB019A8735
:10045000898789859A859E878D878D859E85019759
:10046000F1F79E878D878BCFCF93DF93CDB7DEB724
:1004700063E080E092E00E94A10280E090E0DF91E2
:10048000CF910895CF93DF93CDB7DEB781E890E0A9
:1004900021E830E0F90120812F7EFC01208381E8F2
:1004A00090E021E830E0F90120812860FC01208300
:1004B00080E890E020E830E0F90120812D7FFC0108
:1004C000208380E890E020E830E0F90120812E7F51
:1004D000FC01208381E890E021E830E0F9012081EF
:1004E0002B7FFC01208381E890E021E830E0F901D6
:1004F00020812260FC01208381E890E021E830E047
:10050000F90120812160FC0120838FE690E02FE635
:1005100030E0F90120812260FC01208386E390E035
:1005200026E330E0F90120812260FC01208388E885
:1005300090E029EF30E0FC0131832083DF91CF91FF
:100540000895CF93DF9300D000D000D0CDB7DEB7B1
:100550009D838C836E830E9442021982ADC0898183
:10056000682F70E08981482F50E024E031E0429FFD
:10057000C001439F900D529F900D112484529F4FB4
:100580009C01285F3D4F44E051E0649FC001659F9E
:10059000900D749F900D1124885F9C4FFC01318356
:1005A00020838981482F50E024E031E0429FC00140
:1005B000439F900D529F900D11248C5F9C4F20E81B
:1005C000FC0120838981882F90E0880F991F2C815E
:1005D0003D81820F931FFC01808191819B838A83DF
:1005E0008981482F50E08A819B81892F9927682F24
:1005F00024E031E0429FC001439F900D529F900D37
:1006000011248A5F9C4FFC0160838981482F50E050
:100610008A819B81682F24E031E0429FC001439F83
:10062000900D529F900D1124895F9C4FFC016083B7
:100630008981282F30E08E81882F90E0019728173C
:100640003907A1F48981482F50E024E031E0429F2E
:10065000C001439F900D529F900D1124865F9C4FC7
:1006600028E032E0FC013183208323C08981682F98
:1006700070E08981882F90E0AC014F5F5F4F24E0EC
:1006800031E0429FC001439F900D529F900D112475
:100690009C01285F3D4F44E051E0649FC001659F8D
:1006A000900D749F900D1124865F9C4FFC01318347
:1006B000208389818F5F898399818E81981708F4BF
:1006C0004ECF88E093E09093591680935816A091EE
:1006D0005816B0915916CD91CDBFDD91DEBFFF9177
:1006E000EF91DF91CF91BF91AF919F918F917F91CA
:1006F0006F915F914F913F912F911F910F91FF90BB
:10070000EF90DF90CF90BF90AF909F908F907F90B1
:100710006F905F904F903F902F901F900F900FBE63
:100720000F90089526960FB6F894DEBF0FBECDBF8A
:10073000DF91CF9108950F920FB6F8940F921F9208
:1007400011242F923F924F925F926F927F928F92DD
:100750009F92AF92BF92CF92DF92EF92FF920F9350
:100760001F932F933F934F935F936F937F938F9339
:100770009F93AF93BF93CF93DF93EF93FF93A0919A
:100780005816B09159160DB60D920EB60D92809175
:100790000602909107028E5F9E4FFC01808191813D
:1007A00090930702809306028091060290910702BF
:1007B0008E5F9E4FFC018081918193959093591695
:1007C00080935816A0915816B0915916CD91CDBF6F
:1007D000DD91DEBFFF91EF91DF91CF91BF91AF919E
:1007E0009F918F917F916F915F914F913F912F9149
:1007F0001F910F91FF90EF90DF90CF90BF90AF903F
:100800009F908F907F906F905F904F903F902F9030
:100810001F900F900FBE0F901895CF93DF93CDB719
:10082000DEB783E390E023E330E0F901208122602A
:10083000FC0120830E944004DF91CF910895CF9363
:10084000DF93CDB7DEB784E390E024E330E0F90135
:10085000308122E02327FC012083DF91CF9108958E
:10086000CF93DF93CDB7DEB784E390E024E330E0AD
:10087000F90120812D7FFC012083DF91CF91089524
:10088000CF93DF93CDB7DEB784E390E024E330E08D
:10089000F90120812260FC012083DF91CF9108952E
:1008A000CF93DF93CDB7DEB780E390E020E330E075
:1008B000F90120812068FC0120830E948304DF91DC
:1008C000CF910895CF93DF93CDB7DEB781E390E06A
:1008D00021E330E0F901308120E82327FC01208367
:1008E000DF91CF910895CF93DF93CDB7DEB781E34A
:1008F00090E021E330E0F90120812F77FC01208393
:10090000DF91CF910895CF93DF93CDB7DEB781E329
:1009100090E021E330E0F90120812068FC01208390
:10092000DF91CF910895CF93DF93CDB7DEB780E30A
:1009300090E020E330E0F90120812064FC01208375
:100940000E94C604DF91CF910895CF93DF93CDB776
:10095000DEB781E390E021E330E0F901308120E46B
:100960002327FC012083DF91CF910895CF93DF935C
:10097000CDB7DEB781E390E021E330E0F9012081DB
:100980002F7BFC012083DF91CF910895CF93DF93DC
:10099000CDB7DEB781E390E021E330E0F9012081BB
:1009A0002064FC012083DF91CF9108950E940A0505
:1009B00008F481E008950E94360588F09F5798F06A
:1009C000B92F9927B751B0F0E1F0660F771F881F54
:1009D000991F1AF0BA95C9F714C0B13091F00E946E
:1009E0005005B1E008950C945005672F782F8827A3
:1009F000B85F39F0B93FCCF3869577956795B39595
:100A0000D9F73EF490958095709561957F4F8F4F03
:100A10009F4F0895990F0008550FAA0BE0E8FEEFCD
:100A200016161706E807F907C0F012161306E407B2
:100A3000F50798F0621B730B840B950B39F40A26AB
:100A400061F0232B242B252B21F408950A2609F489
:100A5000A140A6958FEF811D811D089557FD9058E7
:100A6000440F551F59F05F3F71F04795880F97FB72
:100A7000991F61F09F3F79F087950895121613062C
:100A80001406551FF2CF4695F1DF08C0161617065B
:100A90001806991FF1CF8695710561050894089590
:100AA000E894BB2766277727CB0197F908950E9422
:100AB0000A0508F48FEF08950E946F050C94E00575
:100AC0000E94D20538F00E94D90520F0952311F03C
:100AD0000C94C9050C94CF0511240C9451050E9467
:100AE0002E0570F3959FC1F3950F50E0551F629F3F
:100AF000F001729FBB27F00DB11D639FAA27F00D77
:100B0000B11DAA1F649F6627B00DA11D661F829F9D
:100B10002227B00DA11D621F739FB00DA11D621F82
:100B2000839FA00D611D221F749F3327A00D611D9F
:100B3000231F849F600D211D822F762F6A2F112481
:100B40009F5750409AF0F1F088234AF0EE0FFF1FB4
:100B5000BB1F661F771F881F91505040A9F79E3F0B
:100B6000510580F00C94C9050C9451055F3FE4F3E6
:100B7000983ED4F3869577956795B795F795E79561
:100B80009F5FC1F7FE2B880F911D9695879597F96A
:100B9000089597F99F6780E870E060E008959FEFFF
:100BA00080EC089500240A94161617061806090604
:100BB000089500240A9412161306140605060895D3
:100BC000092E0394000C11F4882352F0BB0F40F45B
:100BD000BF2B11F460FF04C06F5F7F4F8F4F9F4F9B
:060BE0000895F894FFCF18
:080BE600B1003201B301080265
:00000001FF
