:100000000C9490000C94AF000C94AF000C94AF00D3
:100010000C94AF000C94AF000C94AF000C94AF00A4
:100020000C94AF000C943B0C0C94AF000C94AF00FC
:100030000C94AF000C9413120C94AF000C94AF000E
:100040000C94AF000C94DD110C94AF000C94AF0035
:100050000C94AF000C94AF000C94AF000C94AF0064
:100060000C94AF000C94AF000C94AF000C94AF0054
:100070000C94AF000C94AF000C94AF000C94AF0044
:100080000C94AF000C94AF000C94AF000C94AF0034
:100090000C94AF000C94AF000C94AF000C94AF0024
:1000A0000C94AF000C94AF000C94AF000C94AF0014
:1000B0000C94AF000C94AF000C94AF000C94AF0004
:1000C0000C94AF000C94AF000C94AF000C94AF00F4
:1000D0000C94AF000C94AF000C94AF000C94AF00E4
:1000E0000C94AF000C94AF000C94AF000C94AF00D4
:1000F0000C94AF000C94AF000C94AF000C94AF00C4
:100100000C94AF000C94AF000C94AF000C94AF00B3
:100110000C94AF000C94AF000C94AF000C94AF00A3
:1001200011241FBECFEFD1E4DEBFCDBF18E0A0E0A9
:10013000B2E0E2EBFDE200E00BBF02C007900D92DF
:10014000AA35B107D9F72AE0AAE5B8E001C01D92A7
:10015000A43CB207E1F70E94D50A0C94D7160C9480
:100160000000CF93DF93CDB7DEB727970FB6F89493
:10017000DEBF0FBECDBF9D838C837F836E838C815A
:100180009D81FC01808191819A8389838C819D81ED
:10019000FC01208131814E815F818C819D81BA017A
:1001A000F90109958B838B81823099F48C819D8133
:1001B00029813A8160E072E0F90109958C819D8185
:1001C000FC01208131818C819D8162E978E0F90117
:1001D000099527960FB6F894DEBF0FBECDBFDF910D
:1001E000CF910895CF93DF9300D000D0CDB7DEB785
:1001F0009A8389837C836B8383EB98E090935B087D
:1002000080935A0810925F0810925E088AEF90E07F
:100210009093610880936008809162088E7F80933C
:100220006208109264081092630881EC98E0909341
:1002300066088093650889819A8190936808809305
:10024000670888E893E190936A08809369081092A0
:100250006C0810926B0880916D088E7F80936D08FA
:1002600010926F0810926E0889ED98E090937108D3
:1002700080937008109275081092740888EE93E0CD
:100280009093770880937608809178088E7F80938A
:10029000780810927A08109279088DE499E090938A
:1002A0007C0880937B081092800810927F0888EE6B
:1002B00093E09093820880938108809183088E7FD9
:1002C00080938308109285081092840886E89AE04B
:1002D000909387088093860810928B0810928A0862
:1002E00081E090E090938D0880938C0880918E0837
:1002F0008E7F80938E081092900810928F0886E867
:1003000098E00E94960F8B819C81FC018081882F50
:1003100090E0892B09F042C089819A81FC01128208
:1003200080910202909103021F921F921F921F92CE
:1003300024E032E0232F2F9324E032E02F93292F63
:100340002F938F930E94DE138DB79EB708960FB63A
:10035000F894DEBF0FBECDBF8091020290910302E0
:100360009C014EE050E061E070E08FE092E00E947E
:10037000EE1389819A81FC01138289819A81FC01A3
:10038000148289819A81FC01158289819A8126EDE6
:1003900031E0FC013183208382E001C081E00F90D5
:1003A0000F900F900F90DF91CF910895CF93DF932F
:1003B00000D000D000D0CDB7DEB79C838B837E8386
:1003C0006D838B819C8103969A8389838D819E8125
:1003D000FC018081882F90E082309105B9F0833054
:1003E000910534F4009781F0019709F412C113C10B
:1003F0008530910509F45DC08630910509F4ACC0E3
:10040000039709F4FDC007C180E006C189819A8184
:10041000FC01808121E0280F89819A81FC012083E1
:1004200089819A81FC018081883120F089819A81BB
:10043000FC0110820E940D1360E080E00E947C129B
:1004400089819A81FC018181482F50E089819A81BC
:10045000FC018081282F30E08091020290910302FC
:10046000652F6F934F93432F4F932F9324E032E0E8
:10047000232F2F9324E032E02F93292F2F938F9354
:100480000E94DE138DB79EB708960FB6F894DEBFB4
:100490000FBECDBF80910202909103029C014EE0FD
:1004A00050E061E070E08FE092E00E94EE1380E0A7
:1004B000B3C089819A81FC01808121E0280F898164
:1004C0009A81FC01208389819A81FC018081883195
:1004D00020F089819A81FC0110820E940D1360E056
:1004E00080E00E947C1289819A81FC018181482FE1
:1004F00050E089819A81FC018081282F30E0809131
:10050000020290910302652F6F934F93432F4F93F5
:100510002F9324E032E0232F2F9324E032E02F9317
:10052000292F2F938F930E94DE138DB79EB70896C5
:100530000FB6F894DEBF0FBECDBF8091020290913E
:1005400003029C014EE050E061E070E08FE092E039
:100550000E94EE1380E060C089819A81FC01808155
:10056000882329F489819A8128E1FC0120830E9453
:100570000D1360E080E00E947C1289819A81FC0169
:100580008181482F50E089819A81FC0180812FEF81
:10059000280F89819A81FC01208389819A81FC013D
:1005A0008081282F30E08091020290910302652F14
:1005B0006F934F93432F4F932F9324E032E0232FD9
:1005C0002F9324E032E02F93292F2F938F930E94B3
:1005D000DE138DB79EB708960FB6F894DEBF0FBE38
:1005E000CDBF80910202909103029C014EE050E049
:1005F00061E070E08FE092E00E94EE1380E00CC0BA
:100600008B819C8125E133E0FC013183208382E0F2
:1006100003C080E001C081E026960FB6F894DEBFEB
:100620000FBECDBFDF91CF910895EF92FF920F9350
:100630001F93CF93DF93CDB7DEB72A970FB6F89409
:10064000DEBF0FBECDBF98878F837A8769878F8182
:10065000988503969A83898389859A85FC01808190
:10066000882F90E08230910509F454C083309105C1
:1006700034F4009781F0019709F44FC185C18530AA
:10068000910509F49AC08630910509F4E9C00397F1
:1006900009F43AC179C10E940D1360E080E00E9424
:1006A0007C1289819A81FC018181482F50E08981E7
:1006B0009A81FC018081282F30E080910202909184
:1006C0000302652F6F934F93432F4F932F9324E093
:1006D00032E0232F2F9324E032E02F93292F2F9302
:1006E0008F930E94DE138DB79EB708960FB6F894CD
:1006F000DEBF0FBECDBF80910202909103029C012C
:100700004DE050E061E070E08EE192E00E94EE1377
:1007100080E03BC189819A81FC01818121E0280F21
:1007200089819A81FC01218389819A81FC018181DF
:100730008C3320F089819A81FC0111820E940D1373
:1007400060E080E00E947C1289819A81FC018181B5
:10075000482F50E089819A81FC018081282F30E068
:100760008091020290910302652F6F934F93432F64
:100770004F932F9324E032E0232F2F9324E032E095
:100780002F93292F2F938F930E94DE138DB79EB73F
:1007900008960FB6F894DEBF0FBECDBF809102025F
:1007A000909103029C014DE050E061E070E08EE129
:1007B00092E00E94EE1380E0E8C089819A81FC01FA
:1007C000818121E0280F89819A81FC01218389811F
:1007D0009A81FC0181818C3320F089819A81FC010E
:1007E00011820E940D1360E080E00E947C128981DA
:1007F0009A81FC018181482F50E089819A81FC0116
:100800008081282F30E08091020290910302652FB1
:100810006F934F93432F4F932F9324E032E0232F76
:100820002F9324E032E02F93292F2F938F930E9450
:10083000DE138DB79EB708960FB6F894DEBF0FBED5
:10084000CDBF80910202909103029C014DE050E0E7
:1008500061E070E08EE192E00E94EE1380E095C0CE
:1008600089819A81FC018181882329F489819A8177
:100870002CE3FC0121830E940D1360E080E00E94C4
:100880007C1289819A81FC0181812FEF280F898157
:100890009A81FC01218389819A81FC018181482F01
:1008A00050E089819A81FC018081282F30E080917D
:1008B000020290910302652F6F934F93432F4F9342
:1008C0002F9324E032E0232F2F9324E032E02F9364
:1008D000292F2F938F930E94DE138DB79EB7089612
:1008E0000FB6F894DEBF0FBECDBF8091020290918B
:1008F00003029C014DE050E061E070E08EE192E087
:100900000E94EE1380E041C08F81988522ED34E093
:10091000FC013183208382E038C089819A81FC0107
:10092000128289819A81FC018081882F90E0A0E069
:10093000B0E09C01AD0160E87EEE86E390E00E94AD
:1009400092137B018C0189819A81FC018181282F7E
:1009500030E040E050E080E69AEEDC010E94D313E4
:10096000DC01CB018E0D9F1DA01FB11F8B839C83CB
:10097000AD83BE838B819C81AD81BE81BC01CD01E5
:100980000E94AC1080E001C081E02A960FB6F89476
:10099000DEBF0FBECDBFDF91CF911F910F91FF90B2
:1009A000EF900895CF93DF9300D000D0CDB7DEB79E
:1009B0009A8389837C836B838B819C81FC018081FA
:1009C000882F90E08230910511F18330910534F445
:1009D000009751F0019709F44BC050C08330910546
:1009E00069F00497A1F14AC010927508109274083A
:1009F00080E798E00E94960F80E041C089819A814B
:100A000026E435E0FC013183208382E038C0809108
:100A10009108882F90E021E0892B09F420E081E003
:100A20008227882F90E0817080939108209191080F
:100A300089819A81FC01228380919108882319F091
:100A40000E94AE0D02C00E94BE0D80E018C08981D8
:100A50009A81FC018281882349F089819A812EE460
:100A600038E0FC013183208382E009C080E007C0C8
:100A700080E798E00E94091080E001C081E00F90BB
:100A80000F900F900F90DF91CF910895CF93DF9348
:100A900000D000D000D0CDB7DEB79C838B837E839F
:100AA0006D838B819C8103969A8389838D819E813E
:100AB000FC018081882F90E08230910509F454C0B8
:100AC0008330910534F4009781F0019709F44FC108
:100AD00050C18530910509F49AC08630910509F41A
:100AE000E9C0039709F43AC144C10E940D1360E0C4
:100AF00080E00E947C1289819A81FC018181482FCB
:100B000050E089819A81FC018081282F30E080911A
:100B1000020290910302652F6F934F93432F4F93DF
:100B20002F9324E032E0232F2F9324E032E02F9301
:100B3000292F2F938F930E94DE138DB79EB70896AF
:100B40000FB6F894DEBF0FBECDBF80910202909128
:100B500003029C014EE050E061E070E08CE292E024
:100B60000E94EE1380E006C189819A81FC01808198
:100B700021E0280F89819A81FC01208389819A8153
:100B8000FC018081883120F089819A81FC011082EA
:100B90000E940D1360E080E00E947C1289819A819E
:100BA000FC018181482F50E089819A81FC0180817C
:100BB000282F30E08091020290910302652F6F93FD
:100BC0004F93432F4F932F9324E032E0232F2F9303
:100BD00024E032E02F93292F2F938F930E94DE136E
:100BE0008DB79EB708960FB6F894DEBF0FBECDBF87
:100BF00080910202909103029C014EE050E061E07E
:100C000070E08CE292E00E94EE1380E0B3C0898134
:100C10009A81FC01808121E0280F89819A81FC0161
:100C2000208389819A81FC018081883120F089812B
:100C30009A81FC0110820E940D1360E080E00E9406
:100C40007C1289819A81FC018181482F50E0898141
:100C50009A81FC018081282F30E0809102029091DE
:100C60000302652F6F934F93432F4F932F9324E0ED
:100C700032E0232F2F9324E032E02F93292F2F935C
:100C80008F930E94DE138DB79EB708960FB6F89427
:100C9000DEBF0FBECDBF80910202909103029C0186
:100CA0004EE050E061E070E08CE292E00E94EE13D2
:100CB00080E060C089819A81FC018081882329F4C9
:100CC00089819A8128E1FC0120830E940D1360E054
:100CD00080E00E947C1289819A81FC018181482FE9
:100CE00050E089819A81FC0180812FEF280F898152
:100CF0009A81FC01208389819A81FC018081282FBF
:100D000030E08091020290910302652F6F934F9320
:100D1000432F4F932F9324E032E0232F2F9324E08F
:100D200032E02F93292F2F938F930E94DE138DB7DC
:100D30009EB708960FB6F894DEBF0FBECDBF809168
:100D40000202909103029C014EE050E061E070E0ED
:100D50008CE292E00E94EE1380E00CC08B819C81BB
:100D600023EC36E0FC013183208382E003C080E085
:100D700001C081E026960FB6F894DEBF0FBECDBF4E
:100D8000DF91CF910895CF93DF9300D000D000D0B2
:100D9000CDB7DEB79C838B837E836D838B819C81F3
:100DA00003969A8389838D819E81FC018081882F9F
:100DB00090E08230910509F454C08330910534F4F9
:100DC000009781F0019709F44FC15EC1853091050C
:100DD00009F49AC08630910509F4E9C0039709F433
:100DE0003AC152C10E940D1360E080E00E947C1263
:100DF00089819A81FC018181482F50E089819A8103
:100E0000FC018081282F30E0809102029091030242
:100E1000652F6F934F93432F4F932F9324E032E02E
:100E2000232F2F9324E032E02F93292F2F938F939A
:100E30000E94DE138DB79EB708960FB6F894DEBFFA
:100E40000FBECDBF80910202909103029C014DE044
:100E500050E061E070E08BE392E00E94EE1380E0EE
:100E600014C189819A81FC01818121E0280F898147
:100E70009A81FC01218389819A81FC0181818C33D3
:100E800020F089819A81FC0111820E940D1360E09B
:100E900080E00E947C1289819A81FC018181482F27
:100EA00050E089819A81FC018081282F30E0809177
:100EB000020290910302652F6F934F93432F4F933C
:100EC0002F9324E032E0232F2F9324E032E02F935E
:100ED000292F2F938F930E94DE138DB79EB708960C
:100EE0000FB6F894DEBF0FBECDBF80910202909185
:100EF00003029C014DE050E061E070E08BE392E082
:100F00000E94EE1380E0C1C089819A81FC01818139
:100F100021E0280F89819A81FC01218389819A81AE
:100F2000FC0181818C3320F089819A81FC0111823E
:100F30000E940D1360E080E00E947C1289819A81FA
:100F4000FC018181482F50E089819A81FC018081D8
:100F5000282F30E08091020290910302652F6F9359
:100F60004F93432F4F932F9324E032E0232F2F935F
:100F700024E032E02F93292F2F938F930E94DE13CA
:100F80008DB79EB708960FB6F894DEBF0FBECDBFE3
:100F900080910202909103029C014DE050E061E0DB
:100FA00070E08BE392E00E94EE1380E06EC08981D6
:100FB0009A81FC018181882329F489819A812CE31B
:100FC000FC0121830E940D1360E080E00E947C12EE
:100FD00089819A81FC0181812FEF280F89819A8173
:100FE000FC01218389819A81FC018181482F50E095
:100FF00089819A81FC018081282F30E08091020252
:1010000090910302652F6F934F93432F4F932F932C
:1010100024E032E0232F2F9324E032E02F93292F76
:101020002F938F930E94DE138DB79EB708960FB64D
:10103000F894DEBF0FBECDBF8091020290910302F3
:101040009C014DE050E061E070E08BE392E00E9493
:10105000EE1380E01AC08B819C8122ED34E0FC010C
:101060003183208382E011C08B819C8190937E0824
:1010700080937D081092800810927F088BE798E09B
:101080000E94960F80E001C081E026960FB6F8948A
:10109000DEBF0FBECDBFDF91CF910895CF93DF9319
:1010A00000D000D0CDB7DEB79A8389837C836B8371
:1010B0008B819C81FC018081882F90E0813091059B
:1010C000D1F1823091051CF4892B39F044C0823073
:1010D000910541F10397E9F03EC010925F0810922C
:1010E0005E0888E893E190936A08809369081092FB
:1010F0007508109274088AE598E00E94960F85E6BC
:1011000098E00E94960F80E798E00E94960F80E09A
:1011100023C089819A8122ED34E0FC013183208350
:1011200082E01AC089819A8122ED34E0FC0131838A
:10113000208382E011C00E947B0D8AE598E00E9426
:10114000091085E698E00E94091080E798E00E9467
:10115000091080E001C081E00F900F900F900F9078
:10116000DF91CF910895CF93DF9300D0CDB7DEB755
:101170009A8389830E945A0D0F900F90DF91CF912F
:101180000895CF93DF9300D01F92CDB7DEB79B8336
:101190008A8383E089838A819B819E012F5F3F4FF1
:1011A000B9010E94B1000F900F900F90DF91CF9185
:1011B0000895AF92BF92CF92DF92EF92FF920F937A
:1011C0001F93CF93DF93CDB7DEB727970FB6F89471
:1011D000DEBF0FBECDBF9F838E830E94E00D0E94B5
:1011E0007910DC01CB01BC01CD010E94AE09A22E19
:1011F000B32EC42ED52EE62EF72E082F192F2A2D0A
:101200003B2D4C2D5D2D6E2D7F2D802F912F298311
:101210003A834B835C836D830E940D1360E080E012
:101220000E947C128B81682F70E08A81482F50E0E9
:101230008981282F30E08091020290910302E72FEC
:10124000EF936F93652F6F934F93432F4F932F938C
:1012500029E432E0232F2F9329E432E02F93292F22
:101260002F938F930E94DE138DB79EB70A960FB609
:10127000F894DEBF0FBECDBF27960FB6F894DEBF41
:101280000FBECDBFDF91CF911F910F91FF90EF90D7
:10129000DF90CF90BF90AF900895CF93DF93CDB7FD
:1012A000DEB762970FB6F894DEBF0FBECDBF9E8744
:1012B0008D878D859E859A83898389819A8125E092
:1012C000FC013396DE01179601900D922A95E1F705
:1012D00084E08C878F81882F90E04CE3489F9001B9
:1012E000499F300D11248885882F90E0820F931F2D
:1012F000092E000CAA0BBB0B8B839C83AD83BE8392
:101300000E947910DC01CB0120E63AEE40E050E08B
:10131000BC01CD010E94A213DA01C9019C01AD01FB
:101320008B819C81AD81BE81281739074A075B07F5
:1013300061F49E01245F3F4F89819A81B9010E9427
:10134000B1008BE798E00E94091062960FB6F894FE
:10135000DEBF0FBECDBFDF91CF9108952F923F9298
:101360004F925F926F927F928F929F92AF92BF92B5
:10137000CF92DF92EF92FF920F931F93CF93DF9361
:10138000CDB7DEB7AC970FB6F894DEBF0FBECDBFBA
:101390006D8B7E8B8F8B988F8D899E89AF89B88D51
:1013A00028EE33E040E050E0BC01CD010E94A213E2
:1013B000DA01C90189839A83AB83BC834D895E8935
:1013C000CA019695879596958795969587959C01E0
:1013D000A5ECB0E20E94C413BC01729562956F70D7
:1013E00067277F70672728EE33E0629FC001639F05
:1013F000900D729F900D11249A01281B390BC90181
:101400009E838D8389819A81AB81BC812CE330E0FE
:1014100040E050E0BC01CD010E94A213DA01C901F5
:101420008F839887A987BA878D819E819C8B8B8BB0
:1014300089819A81AB81BC812CE330E040E050E0AF
:10144000BC01CD010E94A213DC01CB018A8B8F81EC
:101450009885A985BA852CE330E040E050E0BC01D6
:10146000CD010E94A213DC01CB01898B8F8198856D
:10147000A985BA852CE330E040E050E0BC01CD0105
:101480000E94A213DA01C901888B85E0FE017096E3
:10149000DE011B9601900D928A95E1F740E04B85A5
:1014A00030E03C8520E02D8590E09E8580E08F85B2
:1014B000242E332E422E592E682EA22CB32CC42C4F
:1014C000D52CE62CF72C082D192D2A2D3B2D4C2D33
:1014D0005D2D6E2D7F2D802F912FAC960FB6F89439
:1014E000DEBF0FBECDBFDF91CF911F910F91FF9057
:1014F000EF90DF90CF90BF90AF909F908F907F90B4
:101500006F905F904F903F902F900895CF93DF930F
:1015100000D0CDB7DEB79A8389830E94600E0F900A
:101520000F90DF91CF910895CF93DF93CDB7DEB7C2
:1015300027970FB6F894DEBF0FBECDBF9D838C8377
:101540007F836E838C819D81FC01808191819A8350
:1015500089838C819D81FC01208131814E815F8155
:101560008C819D81BA01F90109958B838B81823031
:1015700099F48C819D8129813A8161E072E0F901C1
:1015800009958C819D81FC01208131818C819D8117
:1015900066EA78E0F901099527960FB6F894DEBF60
:1015A0000FBECDBFDF91CF910895CF93DF93CDB71D
:1015B000DEB762EF70E083E998E00E94E70A789472
:1015C0000E94280F80E090E0DF91CF910895CF93A3
:1015D000DF9300D000D01F92CDB7DEB79B838A8304
:1015E0007D836C830E941B0F81E00E94C40B0E94CC
:1015F000480D0E948B0D0E94CE0D0E9430130E9458
:10160000110E80EA9BE00E943C0E82EB9BE00E9460
:101610004E0E8EE29BE00E949D0C87E69BE00E94AE
:101620008B0C19828A819B812C813D81FC01318345
:1016300020838A819B81FC01208131818A819B8169
:10164000AE014F5F5F4FBA01F90109950F900F90FE
:101650000F900F900F90DF91CF910895CF93DF936C
:10166000CDB7DEB780E59BE090939C0880939B0804
:101670001092A00810929F081092A2081092A10840
:101680008091A3088E7F8093A3081092A5081092E2
:10169000A4088BE998E00E94960FDF91CF910895FE
:1016A000CF93DF9300D01F92CDB7DEB79B838A83A1
:1016B00083E08983CE010196BC0183E998E00E9412
:1016C000940A0F900F900F90DF91CF910895CF93D0
:1016D000DF93CDB7DEB789E89BE09093A8088093AD
:1016E000A7081092AC081092AB081092AE081092A6
:1016F000AD088091AF088E7F8093AF081092B1083B
:101700001092B00887EA98E00E94960FDF91CF917F
:101710000895CF93DF9300D01F92CDB7DEB79B83A0
:101720008A8382E08983CE010196BC0183E998E037
:101730000E94940A0F900F900F90DF91CF9108951F
:10174000CF93DF931F92CDB7DEB785E08983CE01BB
:101750000196BC0183E998E00E94940A0F90DF9102
:10176000CF910895CF93DF931F92CDB7DEB786E078
:101770008983CE010196BC0183E998E00E94940A16
:101780000F90DF91CF910895CF93DF931F92CDB744
:10179000DEB7898384E290E024E230E0F901208121
:1017A0002F7BFC01208384E290E024E230E0F90109
:1017B00020812F77FC01208385E290E025E230E054
:1017C000F90120812064FC01208385E290E025E27C
:1017D00030E0F90120812068FC0120838981882381
:1017E00039F00E9465118FEA9CE00E9453111BC0E2
:1017F00088E690E028E630E0F90120812160FC01D4
:1018000020838BE690E02BE630E0F9012081206414
:10181000FC0120838BE690E02BE630E0F90120818B
:101820002068FC0120830F90DF91CF910895CF9322
:10183000DF93CDB7DEB783E290E0FC01808188239F
:1018400014F480E001C081E0DF91CF910895CF933F
:10185000DF93CDB7DEB783E290E0FC018081882F73
:1018600090E080749927892B11F080E001C081E01D
:10187000DF91CF9108951F920F9200905F000F9219
:10188000112400905B000F922F933F934F935F932F
:101890006F937F938F939F93AF93BF93EF93FF9338
:1018A000CF93DF93CDB7DEB70E94270C882361F07A
:1018B0008091B2089091B308892B31F08091B208E1
:1018C0009091B308FC0109950E94170C882361F0E0
:1018D0008091B4089091B508892B31F08091B408BB
:1018E0009091B508FC010995DF91CF91FF91EF919F
:1018F000BF91AF919F918F917F916F915F914F9128
:101900003F912F910F9000925B000F9000925F002B
:101910000F901F901895CF93DF9300D0CDB7DEB70F
:101920009A83898389819A819093B3088093B208BE
:101930000F900F90DF91CF910895CF93DF9300D058
:10194000CDB7DEB79A83898389819A819093B50850
:101950008093B4080F900F90DF91CF910895CF93AB
:10196000DF9300D01F92CDB7DEB78091B6088B838E
:101970008091B708882F90E08854974FFC0110821F
:101980000E94170C882389F08091B708882F90E077
:101990002091B708222F30E02854374FF9012081D9
:1019A00021608854974FFC0120830E94270C8823D4
:1019B00089F08091B708882F90E02091B708222FF6
:1019C00030E02854374FF901208122608854974F26
:1019D000FC0120838091B7088F5F8093B7088091C6
:1019E000B708853011F41092B7088FEF89831A82F7
:1019F0000DC08A81882F90E08854974FFC01808128
:101A00009981892389838A818F5F8A838A8185303E
:101A100080F389818093B6088091B608882F90E082
:101A200081709927892B99F08B81882F90E08170A4
:101A30009927892B61F48091B4089091B508892B7E
:101A400031F08091B4089091B508FC01099580911E
:101A5000B608882F90E082709927892B99F08B81A6
:101A6000882F90E082709927892B61F48091B208C9
:101A70009091B308892B31F08091B2089091B3080E
:101A8000FC0109950F900F900F90DF91CF91089571
:101A9000CF93DF93CDB7DEB783E390E023E330E06D
:101AA000F90120812260FC0120830E947B0DDF91DF
:101AB000CF910895CF93DF93CDB7DEB784E390E065
:101AC00024E330E0F901308122E02327FC01208368
:101AD000DF91CF910895CF93DF93CDB7DEB784E345
:101AE00090E024E330E0F90120812D7FFC01208388
:101AF000DF91CF910895CF93DF93CDB7DEB784E325
:101B000090E024E330E0F90120812260FC01208391
:101B1000DF91CF910895CF93DF93CDB7DEB780E308
:101B200090E020E330E0F90120812068FC0120836F
:101B30000E94BE0DDF91CF910895CF93DF93CDB773
:101B4000DEB781E390E021E330E0F901308120E865
:101B50002327FC012083DF91CF910895CF93DF935A
:101B6000CDB7DEB781E390E021E330E0F9012081D9
:101B70002F77FC012083DF91CF910895CF93DF93DE
:101B8000CDB7DEB781E390E021E330E0F9012081B9
:101B90002068FC012083DF91CF910895CF93DF93DC
:101BA000CDB7DEB780E390E020E330E0F90120819B
:101BB0002064FC0120830E94010EDF91CF910895E3
:101BC000CF93DF93CDB7DEB781E390E021E330E040
:101BD000F901308120E42327FC012083DF91CF919C
:101BE0000895CF93DF93CDB7DEB781E390E021E393
:101BF00030E0F90120812F7BFC012083DF91CF9120
:101C00000895CF93DF93CDB7DEB781E390E021E372
:101C100030E0F90120812064FC012083DF91CF9125
:101C20000895CF93DF93CDB7DEB784E290E024E24E
:101C300030E0F90120812F7DFC01208383E390E0D7
:101C400023E330E0F90120812B7FFC01208385E232
:101C500090E025E230E0F90120812062FC01208340
:101C600084E390E024E330E0F90120812460FC016A
:101C70002083DF91CF910895CF93DF9300D0CDB72C
:101C8000DEB79A83898389819A819093BE08809375
:101C9000BD080F900F90DF91CF910895CF93DF9300
:101CA00000D0CDB7DEB79A83898389819A819093DA
:101CB000C0088093BF080F900F90DF91CF910895D7
:101CC000CF93DF9300D0CDB7DEB783E290E0FC0185
:101CD0008081882F90E08072992721E0892B09F478
:101CE00020E0298382E390E0FC018081882F90E04E
:101CF0008470992721E0892B09F420E02A839981B7
:101D000081E089278823A1F08091C108882381F090
:101D10008A81882339F08091BD089091BE08FC012A
:101D2000099506C08091BF089091C008FC010995F3
:101D300089818093C1080F900F90DF91CF91089512
:101D4000CF93DF93CDB7DEB7789481E0DF91CF9169
:101D50000895CF93DF93CDB7DEB7F89481E0DF919C
:101D6000CF910895CF93DF9300D0CDB7DEB79A839C
:101D700089838FE590E029813A81F9012081FC0176
:101D800020830F900F90DF91CF910895CF93DF9331
:101D900000D0CDB7DEB78091C4089091C508A0915E
:101DA000C608B091C7080196A11DB11D8093C40853
:101DB0009093C508A093C608B093C7088091C20845
:101DC0009091C3089A8389832DC089819A81FC01EF
:101DD00084819581892B91F489819A81FC012085E8
:101DE0002160FC01208789819A81FC01268137814D
:101DF00089819A81FC01358324830DC089819A8170
:101E0000FC01848195819C012150310989819A814D
:101E1000FC013583248389819A81FC018185928527
:101E20009A83898389819A81892B79F60F900F9003
:101E3000DF91CF910895CF93DF93CDB7DEB70E94A6
:101E4000EF1086EC9EE00E94DD10DF91CF910895A7
:101E5000CF93DF93CDB7DEB72A970FB6F894DEBFE6
:101E60000FBECDBF8FE590E0FC01808189870E9485
:101E7000A90E8B8352C08091C2089091C3089A83A7
:101E8000898345C089819A81FC018085817088237E
:101E9000B9F189819A81FC01808191819E838D8332
:101EA00089819A81FC018281938198878F838FE554
:101EB00090E0FC0180818A870E94A00E8C8307C07D
:101EC0008F8198852D813E81F90109951C828C8135
:101ED0008823B1F7CE010A960E94B20E89819A81B9
:101EE000FC0120852E7FFC01208789819A81FC01DD
:101EF00086819781892B21F489819A810E9409101A
:101F000089819A81FC01818592859A83898389815F
:101F10009A81892B09F0B6CF1B828B81882309F027
:101F2000AACFCE0109960E94B20E9CCFFF920F93CA
:101F30001F93CF93DF93CDB7DEB727970FB6F894F3
:101F4000DEBF0FBECDBF9F838E838FE590E0FC0187
:101F500080818D830E94A90E8A833FC08091C20830
:101F60009091C3089C838B8318C08B819C81FC015A
:101F7000208131818E819F81FC0180819181281790
:101F8000390721F4F12C00E010E02DC08B819C81F9
:101F9000FC01818592859C838B838B819C81892B1D
:101FA00021F78E819F81892B11F4198215C08091B0
:101FB000C2089091C3089C838B838E819F819093EC
:101FC000C3088093C2088E819F812B813C81FC01D4
:101FD0003287218781E089831A828A81882309F0E8
:101FE000BDCF01E010E0CE0105960E94B20E013097
:101FF000110511F40000F9808F2D27960FB6F89483
:10200000DEBF0FBECDBFDF91CF911F910F91FF902B
:102010000895CF93DF93CDB7DEB729970FB6F89425
:10202000DEBF0FBECDBF998788878FE590E0FC01AA
:1020300080818F830E94A90E89834AC08091C20843
:102040009091C3089B838A831D821C821E8236C0A6
:102050002A813B81888599852817390721F5809148
:10206000C2089091C3082A813B812817390771F46F
:102070008091C2089091C308FC018185928590935C
:10208000C3088093C20881E08E8318C08A819B8137
:10209000FC01218532858C819D81FC01328721875D
:1020A00081E08E830BC08A819B819D838C838A8192
:1020B0009B81FC01818592859B838A838A819B8198
:1020C000892B29F09E8181E08927882309F61982CE
:1020D0008981882309F0B2CFCE0107960E94B20E03
:1020E00029960FB6F894DEBF0FBECDBFDF91CF911A
:1020F0000895CF93DF9300D000D000D0CDB7DEB7E6
:102100008FE590E0FC0180818E830E94A90E8D8373
:102110000DC08091C4089091C508A091C608B091E7
:10212000C70889839A83AB83BC831D828D818823F2
:1021300081F7CE0106960E94B20E89819A81AB8109
:10214000BC81BC01CD0126960FB6F894DEBF0FBE50
:10215000CDBFDF91CF910895CF93DF9300D000D012
:1021600000D0CDB7DEB76B837C838D839E838FE5F4
:1021700090E0FC0180818A830E94A90E89830DC0B2
:102180008B819C81AD81BE818093C4089093C508EA
:10219000A093C608B093C70819828981882381F764
:1021A000CE0102960E94B20E26960FB6F894DEBFBC
:1021B0000FBECDBFDF91CF910895CF93DF9300D0B5
:1021C000CDB7DEB79A83898389819A819093CB08B2
:1021D0008093CA080F900F90DF91CF910895CF930D
:1021E000DF93CDB7DEB781EB90E021EB30E0F90172
:1021F0002081277FFC01208380EB90E020EB30E002
:10220000F90120812260FC01208380EB90E020EB2B
:1022100030E0F90120812E7FFC01208381EB90E0EA
:1022200021EB30E0F90120812460FC01208381EB67
:1022300090E021EB30E0F90120812D7FFC0120832B
:1022400081EB90E021EB30E0F90120812E7FFC0151
:10225000208380E790E020E730E0F90120812260D0
:10226000FC01208387E390E027E330E0F90120813F
:102270002260FC01208383EB90E029EFFC012083A6
:10228000DF91CF910895CF93DF93CDB7DEB781EB88
:1022900090E021EB30E0F90120812B7FFC012083CD
:1022A000DF91CF910895CF93DF9300D0CDB7DEB704
:1022B0009A83898389819A819093C9088093C808F9
:1022C0000F900F90DF91CF910895CF93DF93CDB70B
:1022D000DEB781E890E021E830E0F90120812F7E2F
:1022E000FC01208381E890E021E830E0F9012081C1
:1022F0002860FC01208380E890E020E830E0F901CC
:1023000020812D7FFC01208380E890E020E830E0F0
:10231000F90120812E7FFC01208381E890E021E8F3
:1023200030E0F90120812B7FFC01208381E890E0DF
:1023300021E830E0F90120812260FC01208381E85E
:1023400090E021E830E0F90120812160FC01208348
:102350008FE690E02FE630E0F90120812260FC0159
:10236000208386E390E026E330E0F90120812260BB
:10237000FC01208388E890E021EE34E0FC01318309
:102380002083DF91CF910895CF93DF93CDB7DEB750
:1023900081E890E021E830E0F90120812D7FFC0107
:1023A000208381E890E021E830E0F90120812E7F50
:1023B000FC012083DF91CF9108951F920F9200902E
:1023C0005F000F92112400905B000F922F933F93B8
:1023D0004F935F936F937F938F939F93AF93BF932D
:1023E000EF93FF93CF93DF93CDB7DEB78091C8080B
:1023F0009091C908FC010995DF91CF91FF91EF9170
:10240000BF91AF919F918F917F916F915F914F910C
:102410003F912F910F9000925B000F9000925F0010
:102420000F901F9018951F920F9200905F000F92CF
:10243000112400905B000F922F933F934F935F9373
:102440006F937F938F939F93AF93BF93EF93FF937C
:10245000CF93DF93CDB7DEB78091CA089091CB08B8
:10246000FC010995DF91CF91FF91EF91BF91AF9161
:102470009F918F917F916F915F914F913F912F919C
:102480000F9000925B000F9000925F000F901F90E2
:1024900018950E94881387FDFCCF08951F93CF9352
:1024A000DF93D82FC62F142F6A3710F5843000F52C
:1024B0006D3340F081E00E947F130E94491283EC4B
:1024C0008C0F06C080E00E947F130E9449128C2F5F
:1024D0000E9475130E9449128D2F886B0E947513FC
:1024E0000E944912812FDF91CF911F910C946A13A2
:1024F000DF91CF911F9108958093B50A6093B40A3C
:1025000008950F931F93CF93DF939091B40A8A306D
:1025100031F41092B50A9F5F9093B40A2DC02091B8
:10252000B50A243129F41092B50A9F5F9093B40A3A
:102530009091B40A943000F596E0899F80011124AF
:10254000C0E0D0E0075A1D4FF801EC0FFD1F80914D
:10255000B50A682F660F680F660F6C0F4081809177
:10256000B40A0E944E122196C630D10569F78091B7
:10257000B50A8F5F8093B50ADF91CF911F910F91BC
:1025800008950E94811280E090E00895982F96951A
:1025900096959695943008F03FC06A37E8F58770B5
:1025A000A92FB0E0262F30E04423A1F04AE74A9F4C
:1025B000F0014B9FF00D1124E20FF31FE453F74F8E
:1025C00041E050E001C0440F8A95EAF78081842BF6
:1025D000808314C04AE74A9FF0014B9FF00D1124FD
:1025E000E20FF31FE453F74F41E050E001C0440F06
:1025F0008A95EAF740958081482340838AE78A9F3D
:10260000F0018B9FF00D1124E20FF31FE453F74FFD
:102610004081892F0C944E120895FF920F931F93BF
:10262000CF93DF930CEC18E0F12CC0E0D0E040E059
:102630006C2F8F2D0E944E12F801EC0FFD1F10829F
:102640002196CA37D10599F7F39406581F4F84E0B5
:10265000F812EBCFDF91CF911F910F91FF9008956A
:102660000E94631380E00E947F130E94491282EE51
:102670000E9475130E9449128FEA0E94751381E02F
:102680000E947F130E94491282EE0E9475130E94DD
:1026900049128FEA0E9475130E940D131092B50A19
:1026A0001092B40A8EE0E6EBFAE0DF011D928A9503
:1026B000E9F781EC92E19093BF0A8093BE0A82E031
:1026C0008093B90A0895549A559A5D9A579A5F9AD9
:1026D000569A08955E9A9FEF9DB98EB95D98000055
:1026E000000000005D9A5E9808955E989FEF9DB986
:1026F0008EB95D980000000000005D9A08952BB12E
:1027000030E1839FC00111242F7E282B2BB908951F
:102710005E981DB81EB85F980000000000008CB1E4
:102720005F9A0895DB018F939F930E94D313BF910B
:10273000AF91A29F800D911DA39F900DB29F900D10
:1027400011240895A1E21A2EAA1BBB1BFD010DC086
:10275000AA1FBB1FEE1FFF1FA217B307E407F50751
:1027600020F0A21BB30BE40BF50B661F771F881F2D
:10277000991F1A9469F760957095809590959B01C3
:10278000AC01BD01CF010895A29FB001B39FC0016C
:10279000A39F700D811D1124911DB29F700D811D8D
:1027A0001124911D08950E94C413A59F900DB49FFC
:1027B000900DA49F800D911D11240895CF93DF9358
:1027C000CDB7DEB7AE01475F5F4F6F8178858D81F2
:1027D0009E810E943014DF91CF9108958F929F9235
:1027E000AF92BF92CF92DF92EF92FF920F931F931F
:1027F000CF93DF935B014A017901D90113962C91A4
:1028000021FF1DC0C0E0D0E0C815D905D9F08C016A
:102810006C01CA0CDB1CC8010C151D0571F00F5FA3
:102820001F4FD7011896ED91FC911997B701DC0164
:102830008C910995892B79F305C02196E5CF80E02D
:1028400090E001C0CE01DF91CF911F910F91FF90D9
:10285000EF90DF90CF90BF90AF909F908F900895B2
:102860002F923F924F925F926F927F928F929F92A0
:10287000AF92BF92CF92DF92EF92FF920F931F938E
:10288000CF93DF93CDB7DEB72C970FB6F894DEBFAA
:102890000FBECDBF7C016B018A01FC01178216823D
:1028A000838181FFBDC1CE0101964C01F701938167
:1028B000F60193FD859193FF81916F01882309F4BF
:1028C000ABC1853239F493FD859193FF81916F01FE
:1028D000853229F4B70190E00E944116E7CF512CD0
:1028E000312C20E02032A0F48B3269F030F48032B9
:1028F00059F0833269F420612CC08D3239F0803375
:1029000039F4216026C02260246023C0286021C0E1
:1029100027FD27C030ED380F3A3078F426FF06C087
:10292000FAE05F9E300D1124532E13C08AE0389ECA
:10293000300D1124332E20620CC08E3221F426FD7E
:102940006BC1206406C08C3611F4206802C0883642
:1029500041F4F60193FD859193FF81916F018111FF
:10296000C1CF982F9F7D9554933028F40C5F1F4F53
:10297000FFE3F9830DC0833631F0833771F083357F
:1029800009F05BC022C0F801808189830E5F1F4F70
:1029900044244394512C540115C03801F2E06F0EC9
:1029A000711CF801A080B18026FF03C0652D70E086
:1029B00002C06FEF7FEFC5012C870E9436162C01F5
:1029C00083012C852F77222E17C03801F2E06F0E7D
:1029D000711CF801A080B18026FF03C0652D70E056
:1029E00002C06FEF7FEFC5012C870E942B162C01D0
:1029F0002C852068222E830123FC1BC0832D90E0B0
:102A000048165906B0F4B70180E290E00E944116E2
:102A10003A94F4CFF50127FC859127FE81915F015F
:102A2000B70190E00E94411631103A94F1E04F1A3C
:102A300051084114510471F7E5C0843611F089360C
:102A400039F5F80127FF07C0608171818281938188
:102A50000C5F1F4F08C060817181072E000C880B2E
:102A6000990B0E5F1F4F2F76722E97FF09C090951E
:102A70008095709561957F4F8F4F9F4F2068722E84
:102A80002AE030E0A4010E947916A82EA81844C0BC
:102A9000853729F42F7EB22E2AE030E025C0F22FB0
:102AA000F97FBF2E8F36C1F018F4883579F0B4C0A5
:102AB000803719F0883721F0AFC02F2F2061B22E58
:102AC000B4FE0DC08B2D8460B82E09C024FF0AC04F
:102AD0009F2F9660B92E06C028E030E005C020E1A7
:102AE00030E002C020E132E0F801B7FE07C06081AB
:102AF0007181828193810C5F1F4F06C0608171815B
:102B000080E090E00E5F1F4FA4010E947916A82E6E
:102B1000A818FB2DFF777F2E76FE0BC0372D3E7F4A
:102B2000A51450F474FE0AC072FC08C0372D3E7E16
:102B300005C0BA2C372D03C0BA2C01C0B52C34FF08
:102B40000DC0FE01EA0DF11D8081803311F4397E44
:102B500009C032FF06C0B394B39404C0832F8678B3
:102B600009F0B39433FD13C030FF06C05A2CB314E0
:102B700018F4530C5B18B32CB31468F4B70180E25B
:102B800090E03C870E944116B3943C85F5CFB31486
:102B900010F43B1801C0312C34FF12C0B70180E3A0
:102BA00090E03C870E9441163C8532FF17C031FD02
:102BB00003C088E790E002C088E590E0B7010CC050
:102BC000832F867859F031FF02C08BE201C080E28A
:102BD00037FD8DE2B70190E00E944116A51438F44C
:102BE000B70180E390E00E9441165A94F7CFAA946F
:102BF000F401EA0DF11D8081B70190E00E944116B9
:102C0000A110F5CF332009F451CEB70180E290E056
:102C10000E9441163A94F6CFF7018681978102C04F
:102C20008FEF9FEF2C960FB6F894DEBF0FBECDBF8F
:102C3000DF91CF911F910F91FF90EF90DF90CF9098
:102C4000BF90AF909F908F907F906F905F904F90CC
:102C50003F902F900895FC01059061507040011045
:102C6000D8F7809590958E0F9F1F0895FC016150B5
:102C7000704001900110D8F7809590958E0F9F1F9E
:102C800008950F931F93CF93DF93FB01238121FDC1
:102C900003C08FEF9FEF28C022FF16C046815781E7
:102CA000248135814217530744F4A081B1819D01ED
:102CB0002F5F3F4F318320838C93268137812F5F95
:102CC0003F4F3783268310C0EB01092F182F008454
:102CD000F185E02D0995892BE1F68E819F81019682
:102CE0009F838E83812F902FDF91CF911F910F9122
:102CF0000895FA01AA27283051F1203181F1E89492
:102D00006F936E7F6E5F7F4F8F4F9F4FAF4FB1E0DE
:102D10003ED0B4E03CD0670F781F891F9A1FA11DD9
:102D2000680F791F8A1F911DA11D6A0F711D811DDA
:102D3000911DA11D20D009F468943F912AE0269F9F
:102D400011243019305D3193DEF6CF010895462FFE
:102D50004770405D4193B3E00FD0C9F7F6CF462FDF
:102D60004F70405D4A3318F0495D31FD4052419348
:102D700002D0A9F7EACFB4E0A69597958795779505
:102D80006795BA95C9F700976105710508959B018C
:102D9000AC010A2E06945795479537952795BA9515
:102DA000C9F7620F731F841F951FA01D0895F89423
:022DB000FFCF53
:102DB2000101B60A253032643A253032640A0073C2
:102DC200657420636C6F636B20686F757200736546
:102DD2007420636C6F636B206D696E007365742081
:102DE200616C61726D20686F757200736574206129
:102DF2006C61726D206D696E00253032643A253047
:102E020032643A253032640A0000000000000000FB
:102E12003E4551453E003E6B6F6B3E001C3E7C3E84
:102E22001C00183C7E3C180030367F363000185C9F
:102E32007E5C18000000000000000000000000009E
:102E420000000000000000000000000030484A3688
:102E52000E00062979290600000000000000607EAD
:102E62000A353F002A1C361C2A00007F3E1C08003F
:102E7200081C3E7F000014367F361400005F005F9E
:102E8200000006097F017F00224D55592200606033
:102E92006060000014B6FFB6140004067F0604004A
:102EA20010307F30100008083E1C0800081C3E0845
:102EB2000800784040404000083E083E0800303C90
:102EC2003F3C3000030F3F0F0300000000000000F2
:102ED20000065F060000070300070300247E247E2D
:102EE2002400242B6A12000063130864630036492D
:102EF20056205000000703000000003E4100000081
:102F020000413E000000083E1C3E080008083E0842
:102F1200080000E0600000000808080808000060DF
:102F2200600000002010080402003E5149453E00A6
:102F320000427F4000006251494946002249494906
:102F420036001814127F10002F49494931003C4ABB
:102F520049493000017109050300364949493600E3
:102F6200064949291E00006C6C00000000EC6C0050
:102F720000000814224100002424242424000041DB
:102F8200221408000201590906003E415D551E0047
:102F92007E1111117E007F49494936003E4141416F
:102FA20022007F4141413E007F49494941007F095A
:102FB200090901003E4149497A007F0808087F005B
:102FC20000417F410000304040403F007F08142212
:102FD20041007F40404040007F0204027F007F02A8
:102FE20004087F003E4141413E007F090909060075
:102FF2003E4151215E007F0909196600264949496F
:10300200320001017F0101003F4040403F001F208C
:1030120040201F003F403C403F00631408146300FF
:10302200070870080700714945430000007F4141CD
:1030320000000204081020000041417F0000040249
:10304200010204808080808080000003070000006D
:103052002054545478007F44444438003844444453
:103062002800384444447F00385454540800087EF1
:103072000909000018A4A4A47C007F0404780000BD
:1030820000007D4000004080847D00007F102844C5
:10309200000000007F4000007C04180478007C04DB
:1030A20004780000384444443800FC444444380066
:1030B20038444444FC0044784404080008545454FE
:1030C2002000043E442400003C40207C00001C20E0
:1030D20040201C003C6030603C006C10106C000012
:1030E2009CA0603C00006454544C0000083E4141E6
:1030F20000000000770000000041413E080002018C
:10310200020100003C2623263C001EA1E121120000
:103112003D40207D00003854545509002055555536
:103122007800205554557800205555547800205782
:10313200555778001CA2E222140038555555080054
:1031420038555455080038555554080000017C4143
:10315200000000017D41000000017C400000702958
:1031620024297000782F252F78007C54545545006F
:1031720034547C5458007E097F494900384545390A
:1031820000003845443900003945443800003C41CC
:10319200217D00003D41207C00009CA1603D00009B
:1031A2003D42423D00003C41403D0080706858383D
:1031B2000400483E494962007E615D433F0022149B
:1031C2000814220040887E090200205455557800D8
:1031D20000007D4100003844453900003C40217D1B
:1031E20000007A090A7100007A112279000008555C
:1031F20055555E004E51514E000030484D40203E24
:10320200415D4B553E04040404041C0017084C6A3B
:1032120050001708342A780000307D30000008146E
:10322200000814001408001408441144114411AA9F
:1032320055AA55AA55BBEEBBEEBBEE000000FF003F
:1032420000080808FF000000702825297000702976
:103252002529700070292528703E415D55413E0A9E
:10326200FB00FF000000FF00FF00000AFA02FE0060
:10327200000A0B080F000000182466240000292A07
:103282007C2A29080808F800000000000F08080836
:1032920008080F0808080808F80808000000FF08D6
:1032A20008080808080808080808FF080800205647
:1032B20055567900702A252A71000F080B0A0A0058
:1032C200FE02FA0A0A0A0B080B0A0A0AFA02FA0AA8
:1032D2000A00FF00FB0A0A0A0A0A0A0A0A0AFB0093
:1032E200FB0A0A005D2222225D00225559300000AD
:1032F200087F49413E007C55555544007C55545544
:1033020044007C555554440000000700000000446E
:103312007D45000000457D45000000457C450008D4
:1033220008080F0000000000F80808FFFFFFFFFF79
:10333200FFF0F0F0F0F0F000000077000000004530
:103342007D44000F0F0F0F0F0F003C42433D000062
:10335200FE4A4A3400003C43433D00003D43423CA8
:10336200000032494A3100003A4546390000FC204B
:10337200201C0000FEAA28100000FFA5241800004F
:103382003C40413D00003C41413D00003D41403C4C
:1033920000009CA0613D00000408710904000002C5
:1033A20002020000000703000000000808080000F5
:1033B20000242E240000242424242405170A342A5D
:1033C200780006097F017F00224D55592200080826
:1033D2002A0808000008181800000609090600005B
:1033E200000800080000000800000000020F0000B2
:1033F2000000090F05000000090D0A0000003C3C16
:0A3402003C3C000000000000000048
:00000001FF
